:1020000000200020594F0000414F0000414F0000C8
:1020100000000000000000000000000000000000C0
:10202000000000000000000000000000414F000020
:102030000000000000000000414F0000AD4F000014
:10204000414F0000414F0000414F0000414F000050
:10205000294B0000414F0000414F0000454F000058
:10206000414F0000B92E0000414F0000414F0000D9
:10207000414F0000414F0000C92E0000414F0000B9
:10208000414F0000414F0000414F0000414F000010
:1020900000000000414F0000414F0000414F000090
:1020A000414F0000414F0000414F0000414F0000F0
:1020B0000000000010B5064C2378002B07D1054B1B
:1020C000002B02D0044800E000BF0123237010BDA4
:1020D000A000002000000000A89E0000044B10B5E6
:1020E000002B03D00349044800E000BF10BDC046E8
:1020F00000000000A4000020A89E0000024A537EB9
:10210000DB09FCD17047C04600400042022310B5F5
:10211000084C227B13432373FFF7F0FF237EDB077A
:10212000FCD50123227E13432376FFF7E7FF608B64
:1021300080B210BD00400042F0B5464B87B01D682C
:10214000454B0F211A68EBB201936B4604001B79D3
:10215000C3712B0A0B4002931801A379E2700B4064
:102160000343A37166682B0B3C48DBB203933040FA
:102170001B031843030A2E0DDBB20E408B4333437F
:102180006060637113031B0D206804931903344BC3
:102190002D0E03400B43110D0591F0210902236020
:1021A0000B40110D0B43238050B2257104F03CF914
:1021B0002C4903F031FD011CFE20800503F070FF67
:1021C000071CA06068B204F02FF9264903F024FD33
:1021D000011CFE20800503F063FF051CE060300059
:1021E00004F06CF9204903F017FD061C039804F075
:1021F00065F9011C301C03F075FB2061029804F0A6
:102200005DF9194903F008FD061C019804F056F920
:10221000011C301C03F066FB6061059804F04EF968
:102220001249061C381C03F009FE011C301C03F087
:10223000F3FCA061049804F041F90C49061C281C29
:1022400003F0FCFD011C301C03F0E6FCE061200003
:1022500007B0F0BD3060800034608000FF0FF0FFF9
:10226000FF0F00FF00007A440000204100F07F458E
:10227000802310B5094A5B02116A0B4313620223E3
:1022800007490A6C1A430A64064A11780B43137013
:10229000FFF734FFFFF73AFF10BDC04600040040CF
:1022A000000800400040004210B50100052812D887
:1022B00003F0BCF918031A0B0D0F00230B4A100092
:1022C000293228300170137010BD0223F6E7032372
:1022D000F4E70423F2E75A21054B064AFF3106488A
:1022E00006F0A2F80F23E9E70123E7E7BC0000208E
:1022F0001E950000C395000037950000F0B5424CD4
:1023000085B001910292A38807005B055B0F0393E0
:10231000002908D0A3883D4A1A408023DB001343DC
:10232000A380FFF7EBFEA388029ADB07DB0F934243
:1023300008D00122A3880299934311400B43A38044
:10234000FFF7DCFE062F51D8380003F06FF9560472
:10235000594447494C00192503231F26226933405D
:10236000B24313432361FFF7C9FE029B002B0BD03E
:10237000022F00D1182523693540254E2D021E401D
:1023800035432561FFF7BAFE0023022F04D00F2248
:10239000204B29331B78134022691F491B060A4032
:1023A00013432361FFF7AAFE019B002B01D0FFF727
:1023B000ADFEFFF7ABFE019B0500002B08D0A38804
:1023C000039A124912020B401343A380FFF796FEB3
:1023D000280005B0F0BD00252B00BEE71925FBE75E
:1023E00019251B23B9E718251A23B6E792210B4BB1
:1023F0000B4AFF310B4806F017F819250223ACE70A
:1024000019251823A9E7C04600400042FFF8FFFF46
:10241000FFE0FFFFBC000020FFFFFFF0069500007B
:10242000949500003795000070B51A4C0500230004
:1024300028331B78012B2AD00A339B00E3185868F5
:10244000154A0023C11703F0E9F90023CE1736031C
:10245000320B801859410E03000D0643606AEA03EF
:10246000D317C11703F0DAF90023CC172403220B8A
:1024700012184B411903100D084319150905030BD8
:10248000320019430005F31703F0A4F970BD024EA2
:10249000E4E7C046BC0000200080FF7F10B5FFF7D6
:1024A000C3FF05F07DFD0022024B04F06DFF05F037
:1024B00035FE10BD0000B03EF8B50F4C0600656952
:1024C0002069291C03F0ECFD071C3000FFF7E6FF34
:1024D000E669311C03F0E4FD391C03F0AFFC311C4C
:1024E000071CA06903F0DCFD011C381C03F094FB01
:1024F000291C03F0F7F9F8BDBC000020F7B5060071
:10250000304C002934D0230000222833012105203B
:102510001F78FFF7F3FE05000020FFF7C5FE00223D
:1025200001210520FFF7EAFE0023C103EA0318009A
:10253000090B03F04FF9E0620120FFF7B5FE00221E
:1025400001210620FFF7DAFE05000220FFF7ACFEAE
:10255000002201210620FFF7D1FE0023C103090B51
:10256000EA03180003F036F960633800FFF79CFEB9
:102570003000FFF7A1FFE568071C291CA06803F0E5
:102580008FFD66690190311C381C03F089FD011C28
:10259000019803F053FC311C071C206903F080FDF7
:1025A000011C381C03F038FB291C03F09BF9206246
:1025B00005F062FD0022044B04F0E6FE05F0BAFCD3
:1025C0006062F7BDBC0000200000304110B5010082
:1025D00000220520FFF792FEFFF726FF064C800041
:1025E000A06405F0DDFC0022044B04F0CDFE05F0F4
:1025F00095FD606410BDC046BC0000200000B03EE8
:10260000F8B506006C4B0C006C4A59680A435A60D6
:102610005A78D209FCD16A4A5A805A78D209FCD138
:10262000FF27032002F088FE664B1D68664B1A6880
:102630006B01D20E1F401743FFF760FDAB065B0F27
:102640001B02624D3B432B85FFF758FD30000838D5
:10265000082828D802F0EAFF2D272F2705050505B1
:10266000050000239BB2AB80FFF748FD0C2E36D847
:1026700023D0FFF7FDFD3F23EB70FFF73FFD002266
:1026800001210220FFF73AFE00230400EB70FFF760
:1026900035FD20000121FFF731FF0120FFF796FFF4
:1026A00034002000F8BD7D21494B4A4A4A4805F0D4
:1026B000BBFE3023D6E72023D4E7002CD9D0202C32
:1026C00062D044D8042C6DD013D8012C57D00123EC
:1026D0001A00022C13D0414B3E4AB921E6E7002CE8
:1026E000EDD130000D38032858D802F09FFF5B551C
:1026F0005351082C46D004231A00102CEBD1300083
:102700000C38C0B24400A41AE10F091949100C1C7E
:1027100049B2042948DD0424341BE4B2111C042A04
:1027200000D90421081A021C40B2042840DD04220A
:1027300012011343DBB2AB70FFF7E0FC1023AA8851
:102740001343AB80FFF7DAFCA642AAD191E78023BE
:102750005B009C421CD006D8402C1BD0F93B1A00D1
:10276000802CCCD0B7E780239B009C420ED08021E8
:10277000F73BFF3BC9001A008C42C0D0ABE70023F7
:102780001A00BCE70323FBE70523F9E70923F7E772
:102790000823F5E70623F3E70423F1E7104B0D4A7E
:1027A000D52183E70223EBE72106B5D50024B3E763
:1027B0001106BDD50022BBE7000C0040030001005C
:1027C0001E43000024608000206080000040004222
:1027D000989400006F95000037950000B3940000B6
:1027E000DE94000070B50C4C2000FFF7A5FCFE2322
:1027F0009B05236280235B036362012323852300FF
:10280000064A2C3323CA23C323CA23C3044B63645D
:10281000044BA36470BDC046BC000020809400003F
:1028200033335340CCCC340010B5152002F02EFECB
:10283000040002F0C9FB094B1A681860002C02D191
:10284000801A1D2808D963426341054ADCB2117819
:10285000044B14704C401C7010BDC0461001002089
:102860000801002009010020F0B55B4B85B01A7803
:10287000002A1BD00024594D594928001C700A26F3
:1028800002F02EFA32002100280002F076FA5549B3
:10289000280002F014FAA0B2FFF7C6FD01340100CF
:1028A0003200280002F083FAFF2CEBD10022012134
:1028B0000220FFF723FD04000121FFF71FFE200087
:1028C000FFF7FAFD02900020FFF780FE0022464C41
:1028D00011000390200000F014FA444E2000310053
:1028E00002F0EDF9424D0627286A05F0C5FB009776
:1028F0000B000200200002F01DFB3E49200002F008
:10290000DEF901222000002100F0FBF93A49200005
:1029100002F0D5F9029805F0AFFB0B00022102008E
:102920000091200002F006FB3449200002F0C7F9B4
:102930002A4C3100200002F0C2F9286A05F09CFB05
:10294000009702000B00200002F0F4FA2C4920004E
:1029500002F0B5F9039805F08FFB0B00042102008B
:102960000091200002F0E6FA2649200002F0A7F9C3
:10297000E86A05F015FB0022234B04F005FD05264F
:1029800002000B000096200002F0D4FA1F4920003C
:1029900002F095F9686B05F003FB00221A4B04F076
:1029A000F3FC009602000B00200002F0C3FA2000A6
:1029B00002F08EF9084B164C1B78002B06D102F062
:1029C00003FB2368C01A134B9842F3D902F0FCFAB8
:1029D000206005B0F0BDC04609010020E8050020D8
:1029E000E09500001B9700001401002013960000E2
:1029F000BC000020199600001B96000022960000E3
:102A00002A960000369600000000B03E4596000071
:102A10000C010020E703000070B50D001400010058
:102A2000062002F007FD2900072002F003FD210027
:102A3000142002F0FFFC70BD73B5E121584C49022F
:102A4000200000F0EBFB0A2002F0F4FA55492000C8
:102A500002F046F95449200002F031F90121062024
:102A600002F09CFC0121072002F098FC01211420B7
:102A700002F094FC4D4E2000310002F031F94C4937
:102A8000200002F01CF90021152002F087FC022230
:102A90004849152001F0B0FF3100200002F020F974
:102AA0004549200002F00BF900F09AF831002000AF
:102AB00002F016F94149200002F001F980211020AE
:102AC000C900FFF79DFD0500102835D13100200019
:102AD00002F006F9002201210220FFF70FFCFFF7A8
:102AE000EBFC3749051C200002F0E9F8281C05F032
:102AF000C3FA0B00022102000091200002F01AFA32
:102B00003049200002F0ECF82F49200002F0D7F8FD
:102B10002E4B186A05F0B0FA0B0006210200009156
:102B2000200002F007FA2A49200002F0D9F82949CA
:102B3000200002F0D5F873BD2749200002F0BFF84D
:102B40000A221021200002F018F92449200002F086
:102B5000B6F80A222900200002F01FF928000838E0
:102B60000728B7D802F058FD04B60AB60E12161997
:102B7000002201201100FFF74FFFABE701220021E7
:102B80001000F8E7002201210800F4E701220020EC
:102B90001100F0E701220021F6E700220121EFE712
:102BA000E805002051960000709600009096000005
:102BB0009496000029280000AB960000C396000000
:102BC000FC960000229600000A970000BC0000203E
:102BD000199600001E970000D7960000F49600009A
:102BE00010B5002302221021014800F0A9F810BD01
:102BF000140100201FB509230393013B02930A33FC
:102C00000193013B00930322103B0421024800F092
:102C100029F905B000BDC04614010020002070470E
:102C2000704710B504000021807A02F003FC0120F7
:102C300002F022FAA07A012102F0FCFB012002F04E
:102C40001BFAA07A002102F0F5FB642002F014FACE
:102C500010BDF8B505000F00002401263900214100
:102C60002B193140D87A013402F0E4FB042CF5D161
:102C70002800FFF7D6FFF8BDF8B505000F000024C7
:102C80000126390021412B193140D87A013402F054
:102C9000D1FB082CF5D12800FFF7C3FFF8BD70B5B4
:102CA00004000D00007A110002F0C4FB607AFF28D6
:102CB00002D0002102F0BEFBE37CDB0604D5290034
:102CC0002000FFF7D9FF70BD29092000FFF7C1FFE1
:102CD00029002000FFF7BDFFF5E710B50122FFF73F
:102CE000DEFF012010BD10B50022FFF7D8FF10BD98
:102CF00010B50121FFF7F7FFFA20C00002F0BCF980
:102D000010BD10B5131C032A00D90323C27DDBB20A
:102D10009A4201D8013AD3B2C3181B7ECB18802146
:102D200049421943C9B2FFF7DEFF10BD04230C214D
:102D300010B5027D134303751143FFF7D4FF10BD97
:102D4000F8B50400012A03D9C57C08202843E074A3
:102D50008020A176C0014031E2752083E176002B0E
:102D600005D0012A03D10423E27C1343E374207AC3
:102D7000012102F013FB607AFF2802D0012102F04A
:102D80000DFBA07A012102F009FB2500102608277F
:102D9000E17C2A1B3B00314200D1042301359342E0
:102DA00004DDA87A012102F0F9FAF1E72B4802F0DC
:102DB00063F9207A002102F03DFBA07A002102F0A5
:102DC00039FB607AFF2802D0002102F033FBE17C5E
:102DD000CB062DD403212000FFF73BFF204802F053
:102DE0004BF903212000FFF734FF1D4802F044F99E
:102DF00003212000FFF72DFF962002F03DF902216C
:102E00002000FFF726FF2021E37C20001943FFF775
:102E10006AFF042320002375FFF788FF2000FFF7D7
:102E200067FF0223062163752000FFF75CFFF8BDF2
:102E3000202520002943FFF756FF094802F01CF91E
:102E4000E17C20002943FFF74EFF962002F014F9A1
:102E5000E17C20002943FFF746FFD4E750C3000080
:102E600094110000F7B504000092124A1F0022607E
:102E70006A4608AB1E7809AB1D7812780AAB1B783E
:102E800062726A4601930BAB1878002312792172A3
:102E9000A772E67225736273A07363602000E37308
:102EA00023746374A374E37401221021FFF748FFB5
:102EB0002000FEBD3C97000010B5024801F0E1FC87
:102EC00010BDC0467403002010B5024801F0D9FCC3
:102ED00010BDC04630010020F7B501240326154F70
:102EE0001549380000F042F81449154800F03EF842
:102EF0001449154800F03AF81449154800F036F81E
:102F00001449154800F032F8144D1549280000F016
:102F10002DF839000096230001940022114801F099
:102F200029FC0096290001941E231F220E4801F05F
:102F300021FCF7BDB805002000080042000C00424B
:102F4000C005002000100042C80500200014004207
:102F5000D005002000180042D8050020E005002020
:102F6000001C004274030020300100200023037184
:102F7000016070479446F0B59E1E721E96416246EF
:102F8000056892072F6836063A4332432A600725C0
:102F900005AC24780068A40129402143426800243C
:102FA000022B00D05C03114321434160F0BD30B5DA
:102FB000C0250368AD031C6812052A402243C024C3
:102FC0000904A40221401143196003685A6814439C
:102FD0005C6030BD0123026811680B431360036815
:102FE0001A68D207FCD4DA69D207F9D470470223F1
:102FF000026811680B4313600268D3699B07FCD415
:1030000070470268137E9B0702D40379002BF9D125
:10301000002303717047002203685A8370470368D6
:10302000187E4007C00F70470368187EC0097047BC
:10303000802302685B42117E0B431376704703685E
:10304000588B8007C00F704702230268518B0B43D7
:10305000538370470368187EC007C00F704703682A
:10306000188DC0B2704703681A7ED207FCD589B2AA
:1030700019850123037118007047012203689A75AE
:103080007047012203681A75704700000368214ADF
:1030900030B593422FD0204A93422FD01F4A9342FB
:1030A0002FD01F4A93422FD01E4A93422FD01E4A40
:1030B00093421FD10E2319220121032599401B4859
:1030C000C024016099082B40AB40FC359D4089002D
:1030D0000918A4000859A843C0259D402B000343AC
:1030E0000B518023DB011A43114B5A805A7852B29C
:1030F000002AFBDB30BD09231422DDE70A23152259
:10310000DAE70B231622D7E70C231722D4E70D2387
:103110001822D1E700080042000C004200100042D3
:103120000014004200180042001C004200E100E0D0
:10313000000C0040F8B504000F0016001D00FFF75A
:10314000A5FF2000FFF746FF1C21BB000B407107C5
:103150002268090C0B431360842322689375012FA6
:103160001AD11021012E00D008390C4B6943186880
:10317000C00002F065FA0722216802408B895203E1
:10318000DB04DB0C13438B81226803049089DB0C86
:10319000400B400318439081F8BDC046100000204A
:1031A0000020704770B50F26CB1D01390200324058
:1031B000D5B22C0000093034092A00DD07341C7018
:1031C000013B8B42F2D170BD10B50C000B4B18685F
:1031D000FFF7E8FF21000A4B08311868FFF7E2FF0C
:1031E0002100084B10311868FFF7DCFF2100064B67
:1031F00018311868FFF7D6FF202010BD0CA0800002
:1032000040A0800044A0800048A0800008B4024B89
:103210009C46103808BC6047C931000070477047B1
:103220003F20704713B56B460268D9710733546865
:1032300019000122A04716BD70B50A260B7892B07E
:103240006E44023305000B703C220021300005F073
:103250005AF9394801AC06903848242107900620D5
:1032600020776846364AA1742281364A364BA281BD
:10327000FD3AFF3A8018C177684623390630C17796
:1032800068460730C17702A8C1770720F277032686
:1032900008316944C87703A9CE7710212B366E44D4
:1032A0003170092621851F3169440E700CA9053E35
:1032B0000E7033212380022369440B7006360DA95A
:1032C0000E7022493536A1863B216E44307010A81D
:1032D0006274E27702703D3269446A440B70137085
:1032E00040210022E37023716371A37341336B4467
:1032F000218719705A702B7DC039A370A372637730
:103300000133DBB2A3776A7D0B200D0068441543BF
:10331000C5773120684403703A23501C6B44187001
:10332000412302320A436B441A70210042220848AA
:1033300000F018FD12B070BD10010424020605242F
:103340000904000001020000080B0000070500004E
:103350004406002008B4024B9C46103808BC604765
:103360003932000070B5027D0B790C0000259A42BD
:103370000BD10B784E78A12B09D1212E05D1072234
:103380001B491C4800F0EEFC0135280070BD212BC4
:10339000FBD1202E22D107221549164800F018FC37
:1033A0009622134BD200196891421DD1DB79DB07BD
:1033B0001AD4FA2002F0E2F800210E4800F0DAFDFB
:1033C0000125232EE1D1E378A2781B0213430A4A98
:1033D00000210848136000F0CDFDD6E7222EEFD182
:1033E0008A78034BDA71DBE702F0D2F8E4E7C046F3
:1033F00004000020440600200000002008B4024B16
:103400009C46103808BC60476533000010B50822A0
:103410000021024805F077F810BDC04604000020E6
:1034200010B5417D006A013100F0FCFA034B1B68C6
:1034300001335A1E9341181810BDC0460C000020DD
:1034400010B5417D006A023100F002FB10BD10B5DD
:10345000417D006A023100F0C9FA10BD70B50D005F
:10346000417D0400130002312A00006A00F0C4FB11
:10347000002801D10123636070BD000010B5054C28
:1034800023685A1C04D103685B69984703002060D5
:10349000180010BD0C000020074A0300106810B58A
:1034A000411C03D001235B42136010BD597D186A93
:1034B000013100F051FBF8E70C00002010B501F0DD
:1034C00083FDF423FF330024984207D9044B0A20DC
:1034D000DC79631E9C41E4B201F0ACFD200010BD1C
:1034E000040000200020704770477047FA239B00BB
:1034F00010B583600F4B0022C38203002833836121
:103500000D4B04004260C261180050332361083043
:10351000631D21622060DA778323A362813BE3622B
:103520008033236301F090FB2100103101F05DFB3B
:10353000200010BD030200009C9B0000022110B57A
:10354000094B1A68437D5B01D318FF339C7A2143F2
:103550009972437D0133DBB25B01D3180122FF3343
:10356000997A0A439A7210BDFC0A002010B50249EC
:103570000248FFF7BBFF10BD44060020E80500200D
:10358000704710B5040001F0ABFD200010BD000035
:10359000F0B5822919D1C3B2294D5A01AA189169EF
:1035A000284C80010C40C0218905214391612649A6
:1035B000083340187021506128685B011A5C8A4307
:1035C000110030220A431A54F0BD0029FCD1C02654
:1035D000C1B21B4C4B01E3189A681A4DB6052A403C
:1035E00032439A60194A800182185A600A000727FC
:1035F000246808325201115DB9430F00012139439B
:1036000011559F6910493D4040182E439E615861F5
:103610007020115D81430800102101431155996804
:103620000B48A2180840802149030143996099681A
:10363000890B89039960402311790B431371C3E708
:10364000FC0A0020FFFFFF8F7006002030080020DA
:10365000FF3F00F0EFF3108303600123436072B675
:1036600070470368002B02D162B6BFF36F8F7047BB
:1036700073B5836D0400002B1BD10600A836357886
:103680006846FFF7E7FF019BEDB2013B02D33578B7
:10369000EDB2FAE768460193FFF7E3FF002D01D191
:1036A000002076BD2300A4331868A0342368C01A14
:1036B000F7E76846FFF7CEFF22000025019BF432B2
:1036C000013B02D31578EDB2FAE768460193FFF7A4
:1036D000C8FF002DE4D02300F0331868EC34E5E790
:1036E00010B5436D4468DBB25A01A21891680948CD
:1036F00008330840802149030143916091685B01D0
:10370000890B890391602268D318402219790A43F2
:103710001A7110BDFF3F00F0F7B5436D4268DBB290
:10372000190004000831106849014118C979C90716
:1037300011D55B01D21893689B049B0C0CD120001F
:10374000FFF7CEFF63681A68636DDBB208335B0175
:10375000D3187F22DA71F7BDE16D002923D1210052
:10376000A4310B6023000125AC33E5656846536046
:10377000FFF770FF260020002100019BA836013BC7
:10378000F430F5315A1C33D0357002785F1ED2B256
:103790000A700A78002A04D120000193FFF7A0FFE5
:1037A000E8E73B00EEE72100F0310B600023E36522
:1037B0002300603353606846FFF74CFF0125260065
:1037C00020002100019BF436013BA830F5315A1C42
:1037D0000ED0357002785F1ED2B20A700A78002AC5
:1037E00004D120000193FFF77BFFE8E73B00EEE701
:1037F00068460193FFF735FFA4E737B56B46DC1D3C
:1038000000230D00237001F01FFA210001F0AAF936
:103810002B681818286020783EBD0000007800282A
:1038200010D00121084B1B681A898A431A8108228B
:10383000198B0A431A830422198B0A431A83002224
:10384000024B1A607047C046FC0A0020F40A0020B0
:1038500010B50F4A93699B0B9B0393611368022277
:10386000FF331A729879823A02439A711A7A920750
:10387000FCD57F24074A2140937A0800A34319000E
:10388000802301439172917A5B420B43937210BD86
:10389000FC0A00200050004110B50C0001F0D4F9E2
:1038A000210001F092F9002804D1034A93699B0B8F
:1038B0009B03936110BDC046FC0A0020F8B50D00C3
:1038C000832A19D1CBB23B4C5A01A21891693A48CC
:1038D000AD010840C0218905014391613749206845
:1038E0006D187021083355615B011A5C8A43110021
:1038F00040220A431A54F8BD022A55D1304A8B009F
:103900009858002802D003685B699847F82001F0B6
:10391000E3FB0400274E2B4B46600360402200214E
:10392000083004F0F0FD22000023A032A364656596
:10393000E3642365A365E3655360D3641372136086
:1039400013654C3213725372FF222B00134059013E
:1039500071188868184F08330740C0208005384325
:103960008860306807265B01195CAD00B1430E002A
:103970000321314319542300616D606811404901EE
:10398000411860334B60616D63680A401B685201E7
:103990009B180122FF33997A20000A439A72FFF79D
:1039A0009FFE074B5C51A6E711002800FFF7F0FDD2
:1039B000A1E7C046FC0A0020FFFFFF8F7006002031
:1039C00048060020049C000070B505000124064B49
:1039D000A200D258002A06D0210028000134FFF7A7
:1039E0006DFF0A2CF3D170BD1C0600200B4BCAB230
:1039F0000B488901C9185301C318596199690832E4
:103A0000890B89039961036852019A180223D371C3
:103A10005179823B0B4353717047C04670060020BA
:103A2000FC0A0020084B8A00D05810B5002803D0AB
:103A300003689B68984710BDC9B2044B49015918E7
:103A400088688004800CF6E748060020FC0A002005
:103A500010B50C00FFF7E6FF00280CD0064BE4B2CF
:103A60001B68083464011C19802362795B4213438C
:103A700063710223E37110BDFC0A0020F0B51C0045
:103A8000304B85B01B6807000D000292002B55D00B
:103A90002D4E3178C9B2002902D1192001F0CAFC9B
:103AA00064233370294BAA00D058002808D003683B
:103AB00022005B68029998470400200005B0F0BD21
:103AC00029003800FFF7AEFF844204D929003800EE
:103AD000FFF7A8FF04000121EBB21D4E03935B0129
:103AE0000193F21893689B0B9B039360019A3368D0
:103AF00002989B18FF335A7A0A435A72154BA90150
:103B0000C918220004F0F6FC002CD6D02900380099
:103B1000FFF788FF0028D0D14021039B326808338B
:103B20005B01D3181879014319710121D971019BE7
:103B3000D318FF339A7A0A439A72BEE7012464428B
:103B4000BBE7C046F40A00206406002048060020B7
:103B5000FC0A00203008002013B56B46DC1D220053
:103B60000123FFF78BFF012801D1207816BD01202A
:103B70004042FBE770B5CBB2124A13485C018901A1
:103B80008918021951609168104D08330D40802149
:103B900049032943402591609168890B890391600D
:103BA00001685A018A1816793543157195796D06A1
:103BB000FCD55B01C918CB79DB07FCD500198068FF
:103BC000C0B270BD30080020FC0A0020FF3F00F0AA
:103BD00070B50D0000211400FFF7CCFFA04200D902
:103BE000200000230349A34203D0CA5CEA540133F6
:103BF000F9E770BD30080020F0B51E003F4B85B0DE
:103C00001B680F000192002B3FD08023DB019E42F6
:103C10003BD83B4C2178C9B2002902D11A2001F0CF
:103C200009FC642300252370364BBA01D318029394
:103C3000002E2CD0344B1B680393FF233B401C0009
:103C400000930834039B64011C19A379DB0921D07C
:103C50002E4B2F49186801F0F3FC2E4B17215843C7
:103C600001F0EEFC2C4BE279920713D4DA5D002AC6
:103C700001D10138F7D20122DA55009B5A01224BBB
:103C80009B189A69920B92039A6101256D42280054
:103C900005B0F0BD0022204B3400DA553F2E09D983
:103CA000009B40245A01184B9B18802299691206E8
:103CB0000A439A6122000199029804F01BFC009BC0
:103CC000A1045A01104B890C9B18029A2D195A61B4
:103CD0009A69361B920B92030A439A61009B039ADE
:103CE00008335B01D3180222DA715979823A0A4308
:103CF0005A71019B1B1901939AE7C046F40A0020F0
:103D00006506002070060020FC0A0020100000203C
:103D100040420F00701101006706002070B50D00D1
:103D20001C000D4BAE01F61811003000220004F00B
:103D3000E1FBEDB209496D014D196E61AB69084AAD
:103D400020001340AB61AB69A2049B0B920C9B0358
:103D50001343AB6170BDC04670060020FC0A002012
:103D6000FF3F00F0F7B5104B01901B780F001500D6
:103D7000002B0CD10D4B16001C78002C09D00C4EDA
:103D80000C4834882018641904F0B4FB34802800EF
:103D9000FEBD002EFBD03A19330000210198FFF739
:103DA000BDFF2418361AF4E7F0090020F10A0020BC
:103DB000F20A0020F1090020F8B50F0016000024D7
:103DC000012A26D9100004F081FB0500380004F018
:103DD00011FF032302220130400028706B709642CD
:103DE0000DD9397800290AD0531CDBB20137A95408
:103DF0009E4203D00232EC54D2B2F0E732002900E6
:103E00000548FFF7AFFF441EA041C4B2280004F0EC
:103E100067FB2000F8BDC04644060020F0B5002432
:103E2000012685B0184B0F0069461E7005000094EE
:103E3000FFF7E3FC154B01A90B806A3BFF3BCB71FD
:103E40005A330B72009B8C7109334B800E4B4E71B1
:103E500008711C703A00092F0FD00D4F09223E70D7
:103E60000C4E280000943480FFF77CFF6946280040
:103E7000FFF7C3FC328808493C702800FFF772FF47
:103E8000012005B0F0BDC046F00900200902000085
:103E9000F10A0020F20A0020F109002070B5CE7866
:103EA00092B005000C00022E0BD18B79C9792C48F9
:103EB00009021943FFF7B2FF411E8841C0B212B098
:103EC00070BD00F0C1FE210000F060FE002803D0AC
:103ED000C117081AC00FF2E7012E0ED1E279A379BB
:103EE00012021A431F49112A13D8D2B2002A10D045
:103EF0002800FFF737FF0120E1E7032EDFD1A37889
:103F0000002B08D1E279A37912021A431649032A39
:103F1000EBD90A78ECE7022B08D1E279A3791202F7
:103F200012491A432800FFF747FFC8E7012B05D1C4
:103F3000E279A37912021A430D49F3E7032BBED1AC
:103F40004122010001A804F0DEFA00F07DFE01A983
:103F500000F02CFEE279A37912021A4301A9E1E7ED
:103F6000440600203E9C00002E9C0000209C000087
:103F7000329C0000CBB204495B01C9188B699B0BD2
:103F80009B038B617047C046FC0A002037B50500D3
:103F900048780C000B2810D801F048FB061B0F2BAB
:103FA0000F404561494C5A5D097801AA002906D1A4
:103FB000022311802800FFF7B1FE01203EBD00233F
:103FC0001380284B1B78012B00D113700223002192
:103FD000F0E78A780023012A03D101AA1380224B3B
:103FE000F0E7204A1370214A93699B0B9B0393616E
:103FF000E3E78C78012C06D100211B4B01AA1C7031
:1040000011702300D6E70120002CD7D1154B174A99
:10401000187093699B0B9B039361CFE78978280005
:10402000FFF716FCC9E72800FFF738FFC6E70123B2
:104030000F4ACCE70B780020DB06BFD12800FFF742
:10404000C3FCA2780A4B0B481A60FFF777FACAE75D
:104050000123094ABBE78A78074B1A60C3E70020AF
:10406000ACE7C046660600206E060020FC0A002071
:10407000F40A0020E8050020F80A00204A4BF7B5B2
:104080001E780500002E00D07EE0484C23689A8BF5
:1040900012070DD5082231009A833000FFF778FA15
:1040A00010222368FF33997A0A439A72404B1E60AC
:1040B00023689A8B52071FD504229A833D4A1378AE
:1040C000002B0AD01378013BDBB213701378002B5E
:1040D00003D101211A2001F0ADF9374A1378002BE2
:1040E0000AD01378013BDBB213701378002B03D195
:1040F0000121192001F09EF92368FF331A7A9206F4
:1041000003D52022597A0A435A721A7AD20623D545
:1041100069460800294AC0CAC0C0A268920B92032F
:10412000A2604022587902435A7160230A7828001D
:104130001A422AD1FFF72AFF2368FF33002827D02D
:104140008022997952420A439A711A7A520603D50B
:104150004022597A0A435A727F2601252368FF3389
:104160001E722F00236808377F01DB19DB79002BD3
:1041700007D0134BAA00D05800280DD003681B6845
:1041800098470135082DECD1F7BDFFF785FBD3E744
:1041900020210C4A9171D8E729000B48FFF7A5F9B7
:1041A0002368DF19FE71ECE7F10A0020FC0A002009
:1041B000F40A002065060020640600203008002074
:1041C00048060020FF500041E805002010B50248D5
:1041D000FFF754FF10BDC0464406002080235B005B
:1041E0000380002343600733037270478300014854
:1041F000C01870471C060020836C402B09D03F225A
:10420000036CC154036C013313400364836C0133AA
:1042100083647047F7B505006846FFF71BFA002670
:104220004022019B013B02D32E6D961BFAE76846A4
:104230000193FFF716FAAB6D6846002B4FD1FFF7DD
:1042400009FA2900019BA831013B5A1C0CD00C78BB
:104250005A1EE4B2002C05D168460193FFF701FA1B
:104260002000FEBD1300F0E7684601930024FFF72D
:10427000F8F92A002900A0321368A431B4420ED004
:10428000086898420BD92800591CEB18116060335C
:1042900019780830C9B2FFF7AFFF0134E9E70968C0
:1042A0009942DDD1002313600133AB656846FFF707
:1042B000D1F92F002A000021019BA837013BF532DC
:1042C000581CC9D0397010785E1E002805D01170B6
:1042D00028000193FFF704FAEBE73300F0E7FFF75C
:1042E000B9F92900019BF431013B5A1C06D00C7826
:1042F0005A1EE4B2002CAFD01300F6E768460193D3
:104300000024FFF7AEF92A002900EC321368F031DF
:10431000B44202D0086898421DD8096899429FD1DA
:10432000002368461360AB65FFF794F92F002A005D
:104330000021019BF437013BF532581C00D18BE77B
:10434000397010785E1E002811D01170280001937A
:10435000FFF7C6F9EAE72800591CEB181160AC33E7
:1043600019780830C9B2FFF747FF0134CBE73300B3
:10437000E3E710B50400FFF74DFF206D10BD10B549
:104380000400FFF747FF236D002B03D0E36CE41814
:10439000207A10BD01204042FBE7F7B517000E0060
:1043A0000400FFF737FF6846FFF754F93F22002566
:1043B0009446019B013B5A1C19D0BD4215D2226D77
:1043C000002A12D00121226D4942002A0AD06046FB
:1043D000E26CA218117AE26C01320240E264226DB2
:1043E000013A226571550135E7E7013BE3E768468D
:1043F0000193FFF736F92800FEBD0000014B024A89
:104400001A607047FC0A002000500041F7B50024F4
:10441000514B012105001A201C7000F0BFFF012143
:104420001A2001F007F84D4B012119201C7000F0F3
:10443000B5FF0121192000F0FDFF2023484A0F207D
:10444000D1690B43D361012246490B7813430B70AA
:10445000454B19788143197006211C782143197046
:1044600042490C7822430A701A7802401A7060227E
:1044700019780A431A703E4B3E4A5A805F78FF090A
:10448000FCD13D4800F09AFD01233C4C3C4E226893
:10449000300011780B43137080223900520004F071
:1044A00032F822689378DB07FCD456621F26354B1E
:1044B0001B68590B980C9B01314030405B0FB14297
:1044C00000D105211F2800D10238072B00D1043B61
:1044D00031408901178D01912B4930400F400199DE
:1044E00039431185118D0700B14308003843108509
:1044F000118D1803254B7F260B4003430C20138599
:104500000823D17881430B430321D3702268D378E9
:104510008B4301390B43D3702268137833401370F7
:10452000042322681678334313702268C124138948
:10453000A40083431648138103591B021B0A03512D
:1045400080230360137813481943012311702B70E3
:104550000021FEF763FEF7BD65060020640600201B
:1045600000040040584400413C440041594400418B
:10457000000C004006400000CD410000FC0A002075
:10458000000B0020246080003FF8FFFFFF8FFFFF3B
:1045900000E100E0E80500200120704710B5036845
:1045A000014A1B6A984710BD13040000FC30006AE2
:1045B000704787239B00C018C36880204000C01A42
:1045C00070470300FC331A6A002A03D0DB69C01865
:1045D000007D704701204042FBE710B504000069F0
:1045E000FEF7F8FC22000023FC329361D3611362D2
:1045F00087229200A4186360A360E36010BD872344
:1046000010B59B00C218D368002BFCD10069FEF7DF
:10461000F8FC10BDF0200140303948424841704755
:10462000F0231B011940802306209B0099420AD0E9
:104630000133FF330130994205D0802302385B00FB
:10464000994200D0002070470F200140002001292E
:1046500003D00239481E8141481C70478B23F0B5B6
:10466000182685B002919B000400C05C330008212D
:104670004343324D1700EB18595600F01FFF304BE3
:104680000821E05C33004343EB18595600F016FF55
:104690002C4BE25C0393022A09D11133E05CFF2822
:1046A00005D008214643AE19715600F007FF8C264D
:1046B000B600A05DFF2819D0012100F06FFE18227E
:1046C000A35D21495A43AB56AD18DB0158188D2123
:1046D000890060501D4901225B188E2189006350BA
:1046E00069688A408F21890062501A600122029B0A
:1046F00011002069FEF71EFD39002000FFF790FF32
:10470000390005002000FFF79FFF39000600200058
:10471000FFF780FF33000090290020690122FEF797
:1047200029FC0B4B2069E25C039BE15CFEF73FFC3C
:104730002069FEF75CFC05B0F0BDC0464C97000058
:104740002D0200002F0200001844004114440041D3
:104750002E020000802210B504005200002103F058
:10476000D2FE23000022FC335A6020009A60DA60F7
:1047700010BD0000F7B51D0008AB1B7804000093C6
:1047800009AB1B781600019300234360FA239B00BA
:104790008360114B0F00083303601430FFF7DAFF1A
:1047A00020002130FF30FFF7D5FF8B236A469B00A6
:1047B0002761E654094B1278E554094B2000E25476
:1047C0006A46084B1279E2548C22313BFF3B92003F
:1047D000A3541032A354FEBD509C00002D020000D3
:1047E0002E0200002F020000F7B5EFF310830093B4
:1047F0000123019372B680260200FF25019BFC3243
:104800007600013B5C1C0FD0D4685F1EB44209D017
:1048100054680155546801342C405460D468013404
:10482000D460EEE73B00EDE768460193FEF719FF21
:10483000F7BD13B5EFF3108300930123019372B614
:10484000019B5A1E0192002B15D00300FC33DA683D
:10485000002A0DD09A68845C9A680132D2B29A60BC
:10486000DA68013ADA606846FEF7FBFE200016BD02
:1048700001246442F7E701246846FEF7F2FE644231
:10488000F4E710B504000069FEF7D9FB002805D055
:104890002069FEF7E4FB2069FEF7D6FB2069FEF7EE
:1048A000BEFB00281BD02069FEF7D9FB01002000C9
:1048B0001430FFF799FF8C239B00E35CFF2B0ED095
:1048C0002300FC331A6A80235B009B1A092B06DC49
:1048D0008D238F229B009200E358A2581A60206912
:1048E000FEF7B8FB00280ED087239B00E318DB6897
:1048F000002B14D020002130FF30FFF79AFFC1B207
:104900002069FEF7B0FB2069FEF78EFB002805D07A
:104910002069FEF78DFB2069FEF77DFB10BD206945
:10492000FEF7AFFBEFE70000F8B5040000690D00EB
:10493000FEF790FB87239B00E618002802D0F3685F
:10494000002B34D001278022F3685200934223D1F8
:10495000EFF310833B4210D1174B5B68DB05DB0D97
:10496000F1D0103B5BB2002B10DAF13A1340083B58
:104970009B08124A9B009B181B682069FEF76AFB84
:104980000028E0D02000FFF77CFFDCE79B08C03365
:104990000B4A9B009B58F0E720002130FF30290094
:1049A000FFF722FF2069FEF768FB0120F8BD290010
:1049B0002069FEF758FBF8E700ED00E01CED00E091
:1049C00000E100E010B504001430FFF732FF8C2343
:1049D0009B00E35CFF2B0ED02300FC331A6A80237C
:1049E0005B009B1A0A2B06DD8E238F229B00920010
:1049F000E358A2581A6010BDF7B501921822162488
:104A000042433F4B07009B181C570091631C6ED01C
:104A1000102C6CD03B4B3C4E1D68002D27D129003B
:104A200044223A4803F06FFD29004422384803F03D
:104A30006AFD1022374B38491D60CA67C021C1206A
:104A4000364B49005A5080001958FF35A943195078
:104A50001A60334B334A5A8002233278134333703F
:104A60007378DB09012BFBD00122264B1A6001254C
:104A7000A540736900212B437361380000F01EFDCF
:104A8000009B002B31D00027224B20499C461B68FD
:104A9000BA00BB421DD16046013303608D501C4BF0
:104AA00000999950072C19DD0123083CA400072127
:104AB000A140154A9B009B189A698A439A61019A02
:104AC000042A12D81000996900F0B0FD0B121416D8
:104AD00018008858A842E1D00137D9E7A400002384
:104AE000E5E70522A2400A439A61ADB2F560F7BD41
:104AF0000422F7E70322F5E70222F3E70122F1E7B8
:104B00004C970000880C002000180040440C002046
:104B1000000C00208C0C002004E100E000E100E02B
:104B2000000C004005400000F8B50024094B1B684C
:104B3000A34200D8F8BD084E084FA5003369EA59D2
:104B40001A4204D0064BEB589847EB5933610134B5
:104B5000ECE7C0468C0C002000180040440C0020FC
:104B6000000C002070B50E0000254468002C0BD00E
:104B7000236831005B6820009847002802DB2D186D
:104B8000E468F3E701256D42280070BD70B50D00A3
:104B90004468002C08D0236829009B6820009847AF
:104BA000002802D1E468F4E7200070BD70B50D0064
:104BB0004468002C07D0236829002000DB68984750
:104BC000E4682D18F5E72C7070BD70B50D004468D1
:104BD000002C08D0236829001B6820009847002873
:104BE00002D1E468F4E7200070BDF8B542788B7913
:104BF0000D00017A9B18040000208B4222DC6368C0
:104C0000834219D16560002623786A71EA792B7195
:104C10009B182370AB79B34213D9AB68B7006078A7
:104C2000DF19FFF7E3FA3B68013603606378F6B2F9
:104C300001336370EEE70B00D9680029FBD1DD601A
:104C4000E1E70120F8BD000070B50126054D064CD6
:104C50002B68334203D12000FFF7C0FA2E602000FA
:104C600070BDC046900C0020940C0020F7B50600E3
:104C70000D000C008B180193019B671B9C4207D011
:104C8000336821781B683000984701340028F3D13D
:104C90003800FEBD70B5040008000D0003F0AAFF47
:104CA0002368020029005B682000984770BD10B59A
:104CB0000B1E02D0FFF7EEFF0300180010BD10B569
:104CC000FFF7F5FF10BD10B503681B68984710BDCE
:104CD00010B50249FFF7DEFF10BDC046909C0000F2
:104CE00070B50400FFF7E3FF05002000FFF7F0FFB9
:104CF000401970BDF0B58BB06B461500002205332E
:104D00000600DA770800012D00D80A2509AC290031
:104D100000F01CFDCAB2130037330700DBB20929CB
:104D200002D813003033DBB2013C2370002FEED1E8
:104D300021003000FFF7BBFF0BB0F0BDF8B5060057
:104D40000C00151E04D10368C9B21B689847F8BD52
:104D50000A2A0CD100290BDA2D21FFF7B4FF61429A
:104D600007002A003000FFF7C5FF3818EFE7D2B27E
:104D700021003000FFF7BEFFE9E710B5FFF7DEFFC7
:104D800010BD10B5002A04D10368C9B21B6898474A
:104D900010BDD2B2FFF7AEFFFAE770B50400FFF71F
:104DA000F0FF05002000FFF793FF401970BD70B5BC
:104DB0000500FFF7E6FF04002800FFF789FF201831
:104DC00070BD0000F7B51E00089B05001700002B02
:104DD00001DA0223089331003A003300380003F06F
:104DE0008DF84B49002814D1012274006408524206
:104DF000484B3800210003F081F800280FD1012230
:104E0000444B52423800210000F0C6FC002806D175
:104E100041492800FFF73EFF04002000FEBDE022CC
:104E20003E4B12063800310000F0C0FC002801D0D3
:104E30003B49EEE7E0223B4B12063800310000F020
:104E4000A1FC0028F4D1002200233800310000F03A
:104E500099FC002814D02D212800FFF734FF80236F
:104E60001B060090F618002400202F49089B9C4246
:104E700008DA00222D4B013401F07CFEE4B2F5E7A4
:104E80000090F0E70B0002003100380001F056FB03
:104E90000F00060000F0ECFC0A220190010028003F
:104EA000FFF728FF009B1C18089B002BB5D001982A
:104EB00003F0B0F802000B003000390002F0D6FC1D
:104EC00006000F0028001A49FFF7E4FE2418089B8B
:104ED0005A1E0892A1D3154B00223000390002F06F
:104EE00053FA0F00060000F0C3FC0A2201000090F4
:104EF0002800FFF7FFFE2418009803F08BF802004B
:104F00000B003000390002F0B1FC06000F00DEE7B4
:104F1000849C0000FFFFEF7F889C0000FFFFEF41B3
:104F20008C9C0000FFFFEFC10000E03F0000244028
:104F3000D596000007B504990091FFF743FF0EBD19
:104F4000FEE70000034B10B51B68002B00D098470C
:104F500010BDC046A00C002070B50F490F4CA142F7
:104F600004D100F0C1F800F097F8FEE70C4D0023E3
:104F70008D42F6D0CA18E818A24205D3094B8242E6
:104F8000EFD00949002204E0006804331060F1E723
:104F900004C38B42FCD3E4E700000020A000002003
:104FA000B49E0000A0000020B80C002010B500F056
:104FB0006FF8002801D100F055F810BD014B1860C2
:104FC0007047C046A00C0020014B18687047C046CF
:104FD000A40C0020F7B51348012284461249134C53
:104FE0008E68636805689B0E13400192886862684A
:104FF000019F920E3A4067463F6893420ED1BD42F0
:105000000CD186420AD35B19FA254868AD00861B8D
:1050100007486B437043000DC018FEBD3D001300F0
:105020000600E3E7A40C002010E000E000ED00E043
:105030005555000070B5041E10D0FFF7CBFF0500DA
:1050400000F025F8FFF7C6FF054B401B9842F7D943
:10505000FA23013C9B00ED18002CF3D170BDC04633
:10506000E703000010B5034A13680133136000F032
:1050700097FA10BDA40C002010B5002806D03023EC
:105080000321584300F0DCFA0138FDD110BD704710
:10509000002070477047000010B500F0D5F803F00D
:1050A000F1F9FFF7F7FF0120FFF7C4FF084C2000DC
:1050B000FFF7ACF92000FEF7B1FBFDF7BDFCFDF7F3
:1050C000D3FB044B002BFAD000E000BFF7E7C0464B
:1050D000440600200000000010B503F0F7F910BDF1
:1050E00010B503F0FDF910BD1E2270B546484749C2
:1050F000436893431C3A1343436008238C6923435A
:105100008B61434C434B9C829C8A14439C82DC6899
:105110001442FCD00124404A14701578254203D073
:1051200055786DB2002DF8DB01249460547864B298
:10513000002CFBDB394C5460547864B2002CFBDB50
:105140008224E4015480547864B2002CFBDB0224F6
:105150009C840E34DD682542FCD0314CDC62102486
:10516000DD682542FCD09D8C2E4C2C439C84102461
:10517000DD682542FCD002249D8C80262C439C8433
:105180004024DD683542FCD0DD682542F9D010248A
:10519000DD682542FCD000249460547864B2002C71
:1051A000FBDB214C5460547864B2002CFBDB1C6A9E
:1051B0001E4D2C4080251C621C6AAC431C620323DC
:1051C00093601B4B536053785BB2002BFBDB0023D7
:1051D000FF240B72174A4B728B72CB72164B1A60FC
:1051E000164B174A1B6811689A065B01C90E2340CB
:1051F000520F12020B431343124A13858023426855
:105200001343436070BDC0460040004100040040AD
:105210000C06000000080040000C004001050100E1
:10522000B905FF7D040A000000070300FFFCFFFF33
:1052300003060100006CDC021000002024608000E6
:105240002060800000400042FA21314B10B5186800
:10525000890000F0F5F92F4B0138984256D82E49B5
:105260002E4A4860C020136A00061B021B0A034333
:105270001362002407238C600B608021136A0906E7
:105280001B021B0A0B431362FC22254B196A0A43BB
:105290001A62FC22196A92010A431A62A022196A50
:1052A000D2020A431A62E0B20021013400F076F81B
:1052B000142CF8D11B4B1C005A7852B2002AFBDB8D
:1052C000194A5A80194B1A00597EC9090129FBD085
:1052D000E421C90099803F21D970537EDB09012B5D
:1052E000FBD0C02300205B011361907000F024F814
:1052F00063785BB2002BFBDB0D4B0E4A6380D379E6
:10530000DB09012BFBD04123537010BDFEE7C046E3
:1053100010000020FFFFFF0010E000E000ED00E0C3
:1053200000040040000C00401E400000004000420D
:105330002140000000480042164A00B51300517E8B
:10534000C9090129FBD00138042816D81969124A65
:105350000A400F211A615A788A4300F067F903085E
:10536000060B0300110001220A435A7000BD110010
:105370000322F9E711000222F6E7F02311691B0569
:105380000B430F21136153788B43190002230B4306
:105390005370EBE700400042FFFFFFF0182330B5E9
:1053A0001D00040045430820204A551928560130A5
:1053B00014D0032912D808006343D156D31800F043
:1053C00035F902280E1B5868CB010221184A9B1898
:1053D0001A1840321170012282405A6030BD58685C
:1053E000CB010621124A9B181A1840321170012273
:1053F00082405A609A61F1E75868CB0106210C4A55
:105400009B181A1840321170012282405A605A616A
:10541000E4E75868CB010221054A9B181A1840326C
:105420001170012282409A60D8E7C0464C97000074
:10543000004400411823F0B508245843114A1318BA
:105440001C5701341BD0012635005F688356BD40D0
:105450000D4ADB019A18906805420BD10C00601EC2
:105460008441D2194032107834400336A400B0434E
:1054700020431070044A9B18002901D15D61F0BDE2
:105480009D61FCE74C97000000440041182310B5D3
:105490000824434307490020CA181457013408D090
:1054A0005B560549DB015B18186A5368D840012335
:1054B000184010BD4C9700000044004118224243A0
:1054C000F8B52C4E0300B218127A52B21400013211
:1054D0000ED0481C00240C280AD800F0A7F807209A
:1054E000202020202020200B0B0B0B0001246442E5
:1054F0002000F8BD092905D10021D8B2FFF74EFFE1
:105500000024F5E70A2902D1D8B20839F6E70024C9
:105510000B29EDD1D8B20A39FFF740FFE8E7182090
:105520004343F2185568F3562C00134ADB016E080A
:1055300017389B18C9B204409E19002C0DD00F24B7
:1055400030363278090122401143C9B25B193170FB
:1055500040331A7810431870D2E732000F273032E8
:1055600016785B19BE433143117040331A781043EB
:105570001870BDE74C9700000044004110B50400CE
:10558000FDF7B2FF014B1C6010BDC04614000020A7
:105590000122024B52421A607047C046140000209C
:1055A000164A10B51368591C26D0013B1360002B16
:1055B00022D172B6124B134A0433934213D9124AC2
:1055C00001211000147D0C42FCD02021148BFF31EE
:1055D0009B085B0021431183D3610C4B1380012393
:1055E000027D1A42FCD0BFF34F8F094B094ADA60A3
:1055F000BFF34F8FC046FDE710BDC046140000202A
:1056000000200000030200000040004102A5FFFF4F
:1056100000ED00E00400FA0502B4714649084900B3
:10562000095649008E4402BC7047C04602B4714618
:1056300049084900095C49008E4402BC7047C046D5
:10564000002243088B4274D303098B425FD3030AC1
:105650008B4244D3030B8B4228D3030C8B420DD3D4
:10566000FF22090212BA030C8B4202D31212090262
:1056700065D0030B8B4219D300E0090AC30B8B42A0
:1056800001D3CB03C01A5241830B8B4201D38B034E
:10569000C01A5241430B8B4201D34B03C01A5241F3
:1056A000030B8B4201D30B03C01A5241C30A8B4236
:1056B00001D3CB02C01A5241830A8B4201D38B0221
:1056C000C01A5241430A8B4201D34B02C01A5241C5
:1056D000030A8B4201D30B02C01A5241CDD2C30937
:1056E0008B4201D3CB01C01A524183098B4201D3B3
:1056F0008B01C01A524143098B4201D34B01C01A9E
:10570000524103098B4201D30B01C01A5241C30815
:105710008B4201D3CB00C01A524183088B4201D384
:105720008B00C01A524143088B4201D34B00C01A70
:105730005241411A00D20146524110467047FFE7DC
:1057400001B5002000F006F802BDC0460029F7D0E0
:1057500076E770477047C0468446101C62468C4608
:10576000191C634600E0C0461FB501F0A5FD0028E6
:1057700001D40021C8421FBD10B501F0FDFC40421C
:10578000013010BD10B501F097FD002801DB0020AD
:1057900010BD012010BDC04610B501F08DFD0028E0
:1057A00001DD002010BD012010BDC04610B501F084
:1057B0001FFD002801DC002010BD012010BDC046E7
:1057C00010B501F015FD002801DA002010BD012000
:1057D00010BDC046002B15D1002A13D1002906DBCD
:1057E00001DC002806D00020C043410802E08021EF
:1057F0000906002007B4024801A14018029003BD29
:1058000055FFFFFF03B4684601B5029800F04EF85B
:10581000019B9E4602B00CBC7047C046F0B5CE4618
:10582000474615042D0C2E0080B50704140C3F0CC0
:105830009946030C7E435D43674363437F19340CF1
:10584000E4199C46A54203D980235B029846C444D0
:105850004B4643435143250C36046544360C24041F
:10586000A4195B19591820000CBC90469946F0BD4C
:1058700070B500220C4B04000D00FFF7A1FF0028BB
:1058800004D12000290002F055FB70BD064B002218
:105890002000290001F0EAFF02F04CFB80231B06E8
:1058A0009C466044F1E7C0460000E041F0B583B09B
:1058B00016001F000090019102F0DEFC04000D00B4
:1058C00002000B0030003900FFF7A8FF009A019B8F
:1058D000121A8B41089920000A604B60290003B01E
:1058E000F0BDC046F8B54746CE4643025B0A4400C9
:1058F000C20F9C464800DD004B02240E5B0A000EDE
:1059000080B5984626009146C90FDB00271A8A42C7
:1059100029D0002F15DD00284AD1002B00D095E0BA
:10592000ED08FF2C00D188E06B025B0AE6B25B0257
:10593000F605580A3043D20710430CBC90469946EE
:10594000F8BD002F00D087E0601CC0B2012800DC49
:10595000B6E0EE1A720100D5C5E0002E3DD100225E
:1059600000260023E3E7002F00DC96E000285DD04E
:10597000FF2C60D08022D20413431B2F00DDECE00B
:105980002022D21B18009340F8405A1E9341034333
:10599000ED186B017BD50134FF2C00D1B7E001225B
:1059A00007262A406B089A4D1D4015432E4029E0DA
:1059B000FF2CB5D08022D20413431B2F00DDB2E0B0
:1059C0002022D21B19009340F9405A1E93410B43E9
:1059D000ED1A6B015BD5AD01AE09300002F022FC7F
:1059E00005388640844265DC041B330020200134E6
:1059F000E340041BA640751EAE41334307261D003D
:105A000000241E4001224B461A40002E04D00F23D2
:105A10002B40042B00D004356B0100D480E7013407
:105A2000E6B2FF2C2FD1FF26002380E7002B52D1B6
:105A3000FF2C00D074E70A00ED08002DF3D080237E
:105A4000DB032B435B025B0AFF2670E7013F002F5D
:105A5000BED0FF2CB1D163E7002C47D0FF2869D01E
:105A60008024E4047A4225431B2A00DDC5E02C0093
:105A70002026D440B21A95406A1E954125435D1BED
:105A800004008946A5E7AB015B0A50E70024012228
:105A90004B461A406B07BAD142E7002F3BD1013485
:105AA000E0B201284ADDFF2CBDD00726ED186D08B5
:105AB0002E40A7E70723574D241A35401E40A1E783
:105AC000002C1BD1002D6ED1002B00D19AE00A00D2
:105AD0001D003C0024E7013F002F00D158E7FF2CB8
:105AE00000D04AE7A7E75E1B894676E7002D1CD168
:105AF0000A00FF281FD004001D0011E7002D5DD112
:105B0000002B17D180230022DB03FF260FE70A00BA
:105B1000FF2600230BE7002C21D1002D66D1FF28A2
:105B2000E9D11D0087E7012352E77A1CA7D0FA4389
:105B3000FF2899D10A001D00FF24F1E6002E21D193
:105B4000002D4FD0002B4CD0ED186B019ED5314B62
:105B500007362E4001241D4054E7012318E7FF2893
:105B6000DFD08024E4047F4225431B2F4DDC202618
:105B7000F61B2C00B540FC406A1E95412543ED18EC
:105B8000040006E7002DCCD0002B00D153E7802184
:105B90006046C903084203D04046084200D11D00B8
:105BA0000121114047E7002B00D1B9E6EA1A500164
:105BB00025D507265D1B2E40894623E7FF24002BB1
:105BC00000D1ADE680226046D203104204D04046A8
:105BD000104201D11D00894601224B46FF241A4084
:105BE0009EE62B00DD080A0000249DE67A1CC6D044
:105BF000FF43FF28B9D11D001DE701253FE7151E12
:105C000000D044E70022002391E60125B7E7C04613
:105C1000FFFFFF7DFFFFFFFBF8B557464E464546A9
:105C2000DE464402E0B546008846640A360EC70FD9
:105C3000002E63D0FF2E24D08023E400DB041C431D
:105C4000002399469B467F3E434642465D02D20F63
:105C50005B006D0A1B0E9046924665D0FF2B55D017
:105C600080220021ED00D2047F3B1543F61A434603
:105C70004A467B400F2A00D98DE06D489200825839
:105C80009746002C54D108239946063BFF269B4695
:105C9000DAE70025534602291BD0032900D1BFE0D3
:105CA000012928D030007F30002820DD6A0704D089
:105CB0000F222A40042A00D004352A0103D53000DF
:105CC0005C4A80301540FE2803DCAC01640AC2B295
:105CD00001E0FF2200246402D205600ADB071043C2
:105CE00018433CBC90469946A246AB46F8BD0122FB
:105CF000101A1B287CDD00220024ECE7002C1DD1AB
:105D000004239946033B00269B469DE7FF3E002D5A
:105D100020D1022143464A467B400A430F2AD8D865
:105D20004548920082589746002D19D10121F1E78C
:105D30000C239946093BFF269B4685E7200002F08D
:105D400071FA7626431F9C4000237642361A994604
:105D50009B4679E74A4603231A439146032186E787
:105D6000280002F05FFA431F36189D407636002166
:105D70007DE780240023E403FF22ACE70025802395
:105D8000DB031C4228D01D4226D12B435C02640A4F
:105D90004346FF229FE762016C01A24224D21B21ED
:105DA0000025013E012710006D005200002801DB94
:105DB000944201D8121B3D4301390029F3D114004C
:105DC000621E944125436DE7BA4659462500534665
:105DD000022900D061E77CE78023DB031C436402D7
:105DE000640A3B00FF2276E7121B1A210125D9E73E
:105DF0009E362A00B5402C00C240651EAC411443BB
:105E0000620704D00F222240042A00D00434620129
:105E100003D4A401640A00225DE7012200245AE7AA
:105E20008024E4032C436402640AFF2253E7C04643
:105E3000949C0000FFFFFFF7D49C0000F0B54E4695
:105E400057464546DE46E0B543025B0A450083B04F
:105E50000F1C99462D0EC60F002D57D0FF2D24D0B4
:105E60008020DB00C0041843002381469A469B46ED
:105E70007F3D7C027A00FB0F640A120E984623D005
:105E8000FF2A4BD0E30080240020E4047F3A1C4327
:105E9000AD186B1C47460193534677403A000F2BD1
:105EA00048D87D499B00CB589F46002B00D085E009
:105EB00008339A46063B9B467C027A00FB0FFF257F
:105EC000640A120E9846DBD1002C00D090E05246B6
:105ED00001231A4392460120DBE74C46584617003F
:105EE000022824D0032800D1CFE00022002301287B
:105EF0004DD15802D205400AFF071043384303B082
:105F00003CBC90469946A246AB46F0BD002B5BD107
:105F100004239A46033B00259B46AAE7FF35002C45
:105F200060D1524602231A4392460220B1E7FF2273
:105F30000023DEE74B461B0C9C464B462604360CE2
:105F4000180461463300220C6446000C43434E4360
:105F50005043544380191A0C1218964203D98021D9
:105F600049028C4664441B041B0C1004C0188301B6
:105F70005E1EB341800E1843130C1B199B01034393
:105F80001C00230179D5012362081C401443019AA7
:105F90007F32002A4DDD630704D00F232340042BFA
:105FA00000D00434230103D53C4B019A1C408032BD
:105FB000FE2ABCDCA3015B0AD2B29AE70C239A4604
:105FC000093BFF259B4654E7180002F02BF94A468F
:105FD000431F76259A4000236D4291462D1A9A461A
:105FE0009B4646E7524603231A439246032050E756
:105FF000200002F017F9431F2D1A9C40763D002027
:1060000047E780230027DB03FF2272E7424666E76B
:106010004C463200584662E780234A46DB031A4268
:1060200022D01C4220D123435B025B0A4746FF2259
:106030005FE701239A1A1B2A21DC23000199D34030
:106040009E318C401A0023005C1EA34113435A0763
:1060500004D00F221A40042A00D004335A0111D46C
:106060009B015B0A002244E780234A46DB0313437B
:106070005B025B0A3700FF223BE7019587E70022BE
:10608000002336E70122002333E78023DB03234389
:106090005B025B0AFF222CE7149D0000FFFFFFF765
:1060A000F8B54746CE464400C20F80B547024802C5
:1060B000400A8446664648007F0A240EF600250002
:1060C0009046FB00000EC90FB146FF2800D185E0C5
:1060D00001267140261A914257D0002E43DD002838
:1060E00000D07FE04946002900D1AAE0013E002E01
:1060F00000D0F7E05B1A5A0100D48BE09B019C09A9
:10610000200002F08FF805388440854200DDD3E09E
:10611000451B230020200135EB40451BAC40621E8F
:1061200094412343072400251C40012241460A4094
:10613000002C04D00F211940042900D00433590148
:1061400000D480E00135ECB2FF2D00D0A3E0FF24A5
:1061500000235B02E405580AD207204310430CBC1D
:1061600090469946F8BD002E74D1601CC0B201283B
:1061700000DCA7E04A469C1A620100D5B6E0002C7C
:10618000BED1002200240023E3E7002E00DC85E0DE
:10619000002846D0FF2C49D080224846D204104324
:1061A000814601221B2E09DC20204C46801B8440A6
:1061B0004A462000F240441EA04102439B185A0167
:1061C00028D50135FF2D00D1A8E0012207249449EC
:1061D0001A405B080B4013431C40A6E7002E00D07A
:1061E00078E775E7FF2C54D080224946D20411434A
:1061F000894601221B2E09DC20214846891B884044
:106200004A460100F240481E81410A439B1A5A0146
:1062100000D573E7012241460A40590700D089E7BB
:1062200011E04846002858D1FF2C0CD1DB08002B88
:1062300000D18CE78020C00303435B025B0AFF248C
:1062400087E7FF2C25D0DB08FF2DF0D05B025B0A2F
:10625000ECB27EE7002C4DD0FF2818D08024E40457
:10626000724223431B2A00DDC4E01C002025D440D9
:10627000AA1A93405A1E934123434A460500D31A53
:10628000884638E7721CF8D0F243FF28EAD10A00AA
:106290004B46FF25D7E79B015B0A5AE7002E41D109
:1062A000651CE9B2012945DDFF2D00D14FE7072428
:1062B0004B445B081C4038E707225A4B2D1A2340F9
:1062C000144032E7002C1DD1002B7AD14B46002B15
:1062D00000D191E00A000025B5E7013E002E19D15A
:1062E0004B446CE7FF2C84D1FF25ACE74A46884637
:1062F000D41A05E7002BC5D10A00FF28C8D0050035
:106300004B46A0E7002B49D14B46002B77D00A0023
:10631000FF2598E7FF2C00D043E787E70A00FF241A
:10632000002316E7002C15D1002B57D1FF28E6D10A
:106330004B467BE7002C20D1002B57D04946002943
:1063400053D04B445A0168D50724364A1C400125D6
:106350001340EAE6FF28EBD08022D20476421343B2
:106360001B2E53DC2025AD1B1A00AB40F2405C1EF7
:10637000A34113434B44050021E7002BD8D04946E5
:10638000002900D152E78021C9030F4200D14DE717
:106390006046084200D049E74B4647E74846FF259C
:1063A000002800D14FE78022D203174204D0604674
:1063B000104201D14B46884601224146FF250A4042
:1063C00041E7484600281FD01A1A500120D54A46F6
:1063D0000724D31A1C4088460025A6E6741CC9D0A1
:1063E000F643FF28BCD14B4620E799464B46002593
:1063F000DB082BE7012340E700220023A9E68023E6
:106400000022DB03FF24A4E600251CE70123B1E7FB
:10641000002AF1D013000025FCE60025FAE6C0466C
:10642000FFFFFF7DFFFFFFFB70B500283DD0C317C6
:10643000C5185D40C40F280001F0F4FE9E22121A18
:10644000962A07DCD2B2082833DD08388540680276
:10645000400A23E0992A0BDD052329001B1AD940A5
:1064600003001B339D402B005D1EAB4119430D0003
:10647000052801DD431F9D402B000F490B406E078F
:1064800009D00F263540042D05D004335D0102D517
:106490009F220B40121A9B01580AD2B24002D20529
:1064A000400AE4071043204370BD0024002200206E
:1064B000F4E76802400AF1E7FFFFFFFB70B5041E36
:1064C00034D001F0AFFE9E22121A962A07DCD2B217
:1064D00008282EDD083884406002400A21E0992A0D
:1064E00009DD030021001B3399404B1E9941052310
:1064F0001B1ADC400C43052801DD431F9C40230090
:106500000D490B40650709D00F252C40042C05D000
:1065100004335C0102D59F220B40121A9B01580ADA
:10652000D2B24002D205400A104370BD00220020C2
:10653000F7E76002400AF4E7FFFFFFFBF0B54F46C4
:106540004646D6460C000903C0B5490A470F5E000F
:1065500039431F03DB0F9C4665007B0A570F1F431F
:106560006D0DE40F760DA146C000B846D200AB1BFE
:1065700064457BD0002B5FDD002E00D0A4E03E0000
:10658000164300D112E15E1E002E00D09EE1871A54
:106590004346B84280410125C91A4042091A0B02FC
:1065A00000D431E149024E0A002E00D16EE13000E4
:1065B00001F038FE0300083B1F2B00DD61E12022C3
:1065C0003900D21A9E40D1409F400E439D4200DDCB
:1065D00051E15D1B6B1C1F2B00DD7CE12021C91AE2
:1065E0003D0030008F408840DD40791E8F413100F2
:1065F00007222843D940002507433A40002A09D002
:106600000F233B40042B05D03B1DBB42BF417F42C3
:10661000C9191F000B0200D426E26A1CC64B55059F
:106620006D0D9A4200D106E1C44AFF080A405307A3
:1066300052023B43120B8EE0002B00D0B8E06B1CE3
:106640005B055B0D012B00DC30E1871A4346B84245
:10665000B641CB1A76429E1B330200D54CE13B007B
:106660003343A1D100220024002570E0002B00DC80
:10667000E5E0002E00D183E0AF4EB54260D0802629
:1066800036043743B846382B00DC3EE1434613431B
:106690001F007A1E97413F188742804140420918E7
:1066A0000B0200D4B0E0A44B01359D4200D1C3E001
:1066B000A24A7B080A4001210F401F435108D3071B
:1066C00007221F433A4099E79B4EB54238D08026B7
:1066D00036043743B846382B00DDDCE01F2B00DCE6
:1066E00030E11E004746203EF740BC46202B04D038
:1066F0004026F31A46469E403243170063467A1EF0
:1067000097411F43CCE0002B00D104E243461343E2
:1067100000D159E14B07C00818438023C9081B0367
:10672000194208D04546ED081D4204D14346D00821
:10673000590708432900420FC9007F4D1143C0008B
:106740004B07CA087C49C00803438D4268D0120336
:106750006D05120B6D0D002112031800130B0A0DAD
:1067600012051A43764B2D0513402B435B00E407BB
:106770005B08234319001CBC90469946A246F0BD15
:106780003E00164312D05E1E002E00D000E1871896
:106790008742804141444042091801250B0233D50C
:1067A000022585E764463300414610001D00C7E717
:1067B000002D00D0DAE00C000443F3D05C1C00D1C3
:1067C0009FE15D4CA64200D12FE1DB43382B00DD79
:1067D00066E11F2B00DD83E120240500E41A0F0091
:1067E000DD40D940A0404346A7405B1A441EA0416B
:1067F00098462F433843171ABA42924143465242B1
:10680000991A64463500CAE607223A40002A00D0A9
:10681000F6E64B07CA084849FF083B438D4296D12C
:106820001900114300D19EE1802109030A4312039C
:10683000120B414D8FE71500002200238BE7002B40
:1068400000D0C7E06B1C5F057F0D012F00DCF1E07D
:10685000394DAB4200D1B9E085180A008542894123
:106860004244494251180722CF076D082F43490877
:106870003A401D00C2E607223049ED1A31403A4045
:10688000BCE63E002838864000279FE6380001F02D
:10689000C9FC20308EE6434613431F007A1E974101
:1068A000C71BB84280414042091A78E60E003B00FF
:1068B00006431343002D61D1002E00D0F4E0002BDD
:1068C00000D11BE164463900100039E71A4FBB4282
:1068D0007AD03300FFE630001F3DE840202B03D084
:1068E0004021CB1A9E4037437B1E9F41072207431E
:1068F0003A400021002589E7171A4346BA42B641BB
:10690000591A76428E1B64464EE61F2B00DDADE021
:1069100020264746F61AB740B9461700B246DF4070
:106920004E463E4337005646B240561EB2411743CC
:106930004246DA408918AEE6FF070000FFFF7FFFFE
:10694000FFFF0F8020264746F61AB740B9461700CA
:10695000B246DF404E463E4337005646B240561ED2
:10696000B24117434246DA40891A99E77F4CA64262
:106970005BD0802424045B42214327E7002E0CD106
:10698000002B00D1CBE0644639001000774DD7E6EC
:10699000764FBB4218D0330075E6002B14D04B075E
:1069A000C00818438023C9081B03194207D0FC08FC
:1069B0001C4204D17907D0080843E14621004C4627
:1069C000420FC9001143C000684DB9E61D00002206
:1069D0000023C0E6002D5BD10D00054300D1E2E6A7
:1069E0005D1C00D1B0E0614DAE421FD0DB43382BBF
:1069F00071DC1F2B00DD96E020250F00ED1AAF4063
:106A0000B9460700AA46DF404D463D432F00554694
:106A1000A840D940451EA84188440743BF18974263
:106A200092415142414435003AE6644635004146C0
:106A3000100085E60B000343002D00D063E6002B19
:106A4000F5D04346134300D17AE687188742804148
:106A500007224144404209183A400B0200D4D5E6CF
:106A6000434B01351940C9E5380069E61E00474629
:106A7000203EF740BC46202B04D04026F31A464661
:106A80009E403243170063467A1E97411F4302E639
:106A9000364DAE42CAD080252D045B422943A6E77D
:106AA0000843411E8841A6E6002B00D148E6871A1C
:106AB0004346B842B641CB1A76429E1B33024BD5B1
:106AC000171A4346BA429241591A5242891A07226A
:106AD00064463A4092E501430F00791E8F419DE7DD
:106AE0001C000F00203CE740202B03D04024E31A79
:106AF00099400843411E884138437CE60022002427
:106B000025E6171A4346BA429241591A5242891A47
:106B10006446350043E541461000144D10E68022DE
:106B20000024120380E61D000F00203DEF40BC460C
:106B3000202B03D04025EB1A9940084307006346F9
:106B4000781E87411F4369E7871897429B4141445C
:106B50005B42C9183500A3E53B003343CED0072282
:106B600031003A4052E600231A00F4E5FF07000026
:106B7000FFFF7FFFF0B55746DE464E464546E0B57F
:106B8000834607000E03480085B092461C00360B72
:106B9000400DCD0F002800D19DE0954B984239D093
:106BA0008023F6001B041E43924A7B0F3343994611
:106BB000944603006344009300230026FF000293E1
:106BC00023031B0B98466300E40F52465B0D0194B0
:106BD00000D1B3E086498B4200D19EE04246D1000D
:106BE000802212040A435146490F11438B468149C2
:106BF00052468C4600996344CB1A0021D200009380
:106C00002B0063409A460F2E00D905E17A4BB6005F
:106C10009B599F465B463343994600D0B8E0022318
:106C20000826002700900293CAE7CB463A00029953
:106C30000195019B9A46022927D0032900D180E2C1
:106C4000012944D06D49009B8C4663441C00002CF4
:106C500038DD530700D013E2D2085B46DB0109D5CB
:106C60005946674B19408B468021C9008C46009BD2
:106C700063441C00634B9C4207DC5B4664055F0772
:106C80005B0217431B0B620D02E000230027584AEA
:106C900000211B031C0B0B0D1B05234314055A4A33
:106CA000380013401C4353466400DB0764081C4350
:106CB000210005B03CBC90469946A246AB46F0BDCB
:106CC0000122524201231B1B382B00DCADE10022C4
:106CD00000230027DCE75B46334399465ED0002E55
:106CE00000D18AE1300001F09DFA03000B3B1C2B20
:106CF00000DD7BE11D22D31A5A460100DA40083933
:106D00008E4013005F46334399468F403F4B002629
:106D10001B1A00930023029352E7414653460B434C
:106D20003B499B468C46009B634400935B46002B8B
:106D30003BD1022300221E43022161E74346134355
:106D40009B4637D04346002B00D162E1404601F01C
:106D500069FA03000B3B1C2B00DD53E102004146A6
:106D6000083A914088461D21CB1A5146D9400B0064
:106D700041460B439B46534693401A00009B2549CE
:106D80009C46604403008C4663440093002137E72F
:106D90000323B14600900C26029311E700230093D1
:106DA00001330426002702930AE70323C3461E4348
:106DB000032125E701331E430022012120E70023A0
:106DC0009A46802300271B03094A61E7802349462E
:106DD0001B03194200D1E2E05946194200D0DEE01F
:106DE0000B431B0317001B0BA246014A50E7C0468A
:106DF000FF07000001FCFFFF549D0000FF0300009F
:106E0000FFFFFFFEFE070000FFFF0F800DFCFFFFEE
:106E100001F8FFFFF3030000D94500D9CBE000D112
:106E2000C6E03C0048460027009B013B00935B46C0
:106E3000160E1B021E431302984633041B0C994680
:106E4000310C0191FEF782FC4A4642430B04210CAF
:106E5000050019438A4207D98919013D8E4203D89A
:106E60008A4201D9851E8919881A0199FEF76EFC9C
:106E700009048C464A46210464464243090C030037
:106E800021438A4204D98919013B8E4200D8F1E09E
:106E90002D041D43AB464346891A4246280C120472
:106EA0001D0C5B46140C22001B041B0C5A4303945C
:106EB0006B434443029568431B19150CEB189C4225
:106EC00003D980246402A44660441C0C15041B04EE
:106ED0002D0C20185D19814277D373D00C1AA24A69
:106EE0007D1BAF42BF419446009B7F426344E01B41
:106EF0001C00864200D1DBE00199FEF727FC4A46E0
:106F000042430B04290C070019438A4207D9891907
:106F1000013F8E4203D88A4201D9871E8919881AF7
:106F20000199FEF713FC09044A46894629044D4697
:106F30004243090C030029438A4207D98919013BBE
:106F40008E4203D88A4201D9831E89193F04891AC7
:106F50003A00039F1A43380013041B0C5843814620
:106F60000298150C6F43434345434846000C844642
:106F7000DB1963449F4203D9802040028446654464
:106F800048461F0C00041B04000C7D191818A94268
:106F900000D284E000D17FE001231A4357E680232A
:106FA0004A461B0313431B031B0BAA466F4A6FE69B
:106FB000BA4200D935E74B46DC0758087B081C432A
:106FC000FF0734E70024AF4289D247444745A44134
:106FD0005B466442A4196418013BA6421ED2A0423B
:106FE0006DD800D1B6E0241A9B4678E703005A46D4
:106FF000283B9A400027914688E6584601F012F94E
:10700000203072E603005246283B9A409346002205
:10701000B4E6504601F006F920309AE6A642E2D1E5
:10702000B845DCD9341A9B4659E71F2B65DC504C18
:107030000099A4465C46614408008C4011008240DF
:10704000D940501E82410C4314435A46DA40130083
:10705000620709D00F222240042A05D02200141D05
:107060009442894149425B181A0262D501220023E9
:1070700000270DE68A4200D80AE7831E891907E730
:107080000F231340042B00D1E6E5171D97429241D0
:1070900053429B44FA08E0E5002800D1D7E5711877
:1070A000531EB14227D3A94215D358D01A0073E713
:1070B000002B00DC04E6012300229B44CDE50223E3
:1070C0004744474589415B429C46494289190C190E
:1070D000E344241A03E743465F0047459B41B84613
:1070E0005B429E19023A8919A94200D054E74045F3
:1070F00000D051E7ABE51A00F6E71F215F46494291
:107100000C1BE740202B07D01A49009B8C46634498
:1071100018005B4683401A43501E82413A430727BA
:107120000023174009D00F21002311401400042927
:1071300095D122005F075B021B0BD2081743002288
:10714000A6E5802359461B030B431B0317001B0BAB
:10715000064A9DE5BD42B2D89B460024BFE6804565
:10716000B9D31A00C3E7C046FF030000FF070000C1
:107170001E0400003E040000F0B54F464646D646C9
:107180008446C0B58046194E18030F034D00000B0E
:107190005C0082463F0B6D0DC90F9146640DDB0FFD
:1071A0000120B5420AD0B44203D0A54201D15745CF
:1071B0000CD01CBC90469946A246F0BD66463E43A4
:1071C000F7D1AC42F5D154461443F2D10120C84561
:1071D000EFD1994207D0002DEBD163461F43380011
:1071E000471EB841E5E70020E3E7C046FF0700007F
:1071F000F0B54F464646D6464D00C0B50E03C90F02
:107200008A462C491F035C008046360B6D0D914663
:107210003F0B640DDB0F8D421ED08C4216D0002D2B
:107220001ED130438446002C01D13A4323D062461C
:10723000002A1AD09A4529D0514602200139084027
:1072400001381CBC90469946A246F0BD3900114356
:10725000E5D002204042F4E73043FAD1AC420FD0EF
:10726000002C0FD13A43E7D00CE00122013B9343BD
:1072700018000130E5E763460020002BE1D0DBE792
:107280003A43E6D19A45D7D1A542D5DCA54205DBE4
:10729000BE42D1D808D00020BE42D2D250460123EF
:1072A000013898430130CCE7C845C5D80020C8450F
:1072B000F4D3C6E7FF070000F0B54F464646D64672
:1072C0004D00C0B50E03C90F8A462E491F035C004E
:1072D0008046360B6D0D91463F0B640DDB0F8D42E2
:1072E00018D08C4211D0002D18D130438446002C88
:1072F0001ED13A431CD163460020002B30D05146AA
:1073000002200139084001382AE039001143EAD04F
:10731000022025E03043FBD1AC4226D0002C26D100
:107320003A4324D15146022001390840013817E080
:107330006246002A0FD09A45E1D1A54205DBBE4244
:10734000DDD819D00020BE420AD2504601230138B0
:107350009843013004E00122013B934318000130BF
:107360001CBC90469946A246F0BD3A43D0D19A45FE
:10737000C5D1A542C3DCE0E7C845C0D80020C84558
:10738000E3D3EDE7FF070000F0B55746DE464E4673
:107390004546E0B5834606000F03480087B0924695
:1073A0001D003F0B400DCC0F002800D16FE0DE4BDD
:1073B000984238D08023FF001B041F43730F3B43C8
:1073C0000193DA4B0027994600239B46F60081443F
:1073D0002B0369001B0B52469846490DED0F0029FF
:1073E00000D185E0D04B994200D173E04346DA00EA
:1073F00080231B0413435246CC48520F8446134348
:10740000524600206144D200894421006940009125
:107410008C46012149448A460F2F00D990E0C44987
:10742000BF00CF59BF465B463B43019300D06AE1A2
:1074300002230827002681469B46C9E732005846AA
:10744000019B61460091022800D175E0032800D11C
:10745000FEE1012800D02CE10023002700260025B2
:107460003F032A0D3F0BB34812053A4302401B0568
:107470001343009A5B00D1075B080B4330001900EF
:1074800007B03CBC90469946A246AB46F0BD5B4671
:107490003B43019300D12FE1002F00D1A5E138003B
:1074A00000F0C0FE03000B3B1C2B00DD96E11D220B
:1074B000D31A5A460100DA405E4608398F4013005D
:1074C0008E403B4301939C4B00271B1A9946002397
:1074D0009B467DE7414653460B4393498C46E14426
:1074E000002B00D01AE102220220174300228CE771
:1074F000134300D10DE14346002B00D181E140460A
:1075000000F090FE02000B3A1C2A00DD72E101003F
:10751000434608398B4098461D239A1A5346D34058
:107520001A004346134352468A404946081A824984
:1075300089468144002068E77B4B002700268EE7C0
:10754000140C1204120C1100370C3604350C79435C
:1075500028008C462E006043604483465643210039
:10756000300C80465846794340440291844506D900
:107570008846802149028C46E04441460291360407
:10758000010C360C00048B4681191E0C1B041B0CCD
:107590000391190079438C46280075436544A84639
:1075A0005843050C45447743A94203D98021490239
:1075B0008C466744290C8C4639000004000C2D04CD
:1075C0002D186144AB4405915946049101990F046B
:1075D0003F0C080C390051434243904602008C4650
:1075E000090C8B4662437C4344445C44A04503D968
:1075F0008021490288464244210C8846614609049C
:10760000090C8C4639005943434370437E430F0CA9
:10761000F6182404BE19644442448C46B34203D98C
:1076200080235B0298464044029B61469846049B37
:10763000370443449B46AB45AD416B420D0405996D
:107640002D0C8C467F196744FD18A8465D462D1900
:10765000A542A44193466442A446C344DC448F42FD
:10766000BF4198459B4193459241A445A4415B424B
:107670007F421F43360C52426442BF192243BF1857
:10768000624638184302D20D039913436A020A4333
:10769000501E82416146ED0D2A434E023243D9010C
:1076A00000D4B3E00126500832400243DE073243E3
:1076B0005B08224C5444002C62DD510709D00F2096
:1076C0001040042805D0101D9042924152429B1850
:1076D0000200D90104D580241948E4000340544431
:1076E0001848844200DD27E75E075B02D2081F0BC3
:1076F000630516435B0DB2E6002399460133042768
:1077000000269B4664E60323019781460C279B468F
:107710005EE6012201201743002276E603230320C0
:107720001F43434671E6C046FF07000001FCFFFF10
:10773000949D0000FFFF0F800DFCFFFFFF03000082
:10774000FFFFFFFEFE0700000023802700933F039A
:107750000026434B83E6019B3200A446584670E660
:10776000AC466EE6802701993F0339422DD03B425B
:107770002BD11F433F033F0B00951600384B6EE69D
:1077800001252D1B382D00DD66E61F2D40DC354818
:107790001C005044160082408440EE40501E82413E
:1077A00034431443EB40620709D00F222240042ADD
:1077B00005D02200141D9442804140421B181A0239
:1077C0003ED501230027002649E68027019B3F0381
:1077D0001F433F033F0B0094214B40E603005A46F2
:1077E000283B9A40002601926DE6584600F01AFDAB
:1077F000203057E603005246283B9A4013000022EF
:1078000093E6504600F00EFD20307BE6CA4650E776
:107810001F201E004042041BE640202D03D0124CC6
:107820005444A3401A43501E824132430726002786
:10783000164009D00F200023104014000428B9D1AD
:1078400022005E075B021F0BD2081643002306E6E8
:1078500080273F031F433F033F0B1600004BFEE50D
:10786000FF0700001E0400003E040000F8B5574664
:107870004E464546DE460C000903E0B5490A460F70
:107880005F0031431E03DB0F760A9B46530F3343E1
:10789000C84E6500C000E40FD2006D0DA2468146BF
:1078A0007F0D9C469046B74200D1B9E05B46012669
:1078B00073409B46EE1BA34500D183E0002E63DDA1
:1078C000002F00D0B1E06346134300D123E1731EC3
:1078D000002B00D0BAE1861A6346B04280410125F0
:1078E000C91A4042091A0B0200D447E149024B0A67
:1078F00098464346002B00D189E1404600F092FCB7
:107900000300083B1F2B00DD7CE120223000D21A4F
:107910004146D040994002009E400A439D4200DD0E
:107920006AE15D1B6B1C1F2B00DD94E12021100020
:107930003500C91A8E40DA408840DD40711E8E4104
:10794000110007222843002506433240002A09D0AF
:107950000F233340042B05D0331DB342B64176428A
:1079600089191E000B0200D43DE26A1C914B55059B
:107970006D0D9A4200D119E18F4AF6080A40570767
:1079800052023743120B9BE0002E00D0C5E06E1C64
:107990007605760D012E00DC48E16746861ACB1B82
:1079A000B042BF417F42B8461F004346FF1A3B002A
:1079B000B8461B0200D55FE137439AD1002200246C
:1079C000002579E0002E00DCFAE0002F00D18DE0E8
:1079D000784B9D4267D0802367461B041F43BC46FB
:1079E000382E00DC52E1634613435A1E93411E18A1
:1079F00086428041404209180B0200D4BEE06D4B24
:107A000001359D4200D1D2E06B4A73080A40012142
:107A10000E401E435108D30707221E43324095E70C
:107A20001E00164300D045E740E7624B9D423AD026
:107A3000802367461B041F43BC46382E00DDEBE065
:107A40001F2E00DC3AE133006746203BDF403B005D
:107A5000202E05D04027BF1B6646BE4032439046CD
:107A60004646721E96413343DAE0002B00D114E201
:107A70006346134300D168E180234E07C008C9085C
:107A80001B030643194208D06046C008184204D1BF
:107A900063460100D2085E071643F3009946C90009
:107AA000720F444D11434B46DE08424B4F0737439C
:107AB000CA089D4200D16EE012036D05120B6D0DD8
:107AC00000211203130B0A0D12051A433B4B2D051F
:107AD00013402B435B00E4075B0823433800190085
