:1020000000200020295F0000115F0000115F000028
:1020100000000000000000000000000000000000C0
:10202000000000000000000000000000115F000040
:102030000000000000000000115F00007D5F000054
:10204000115F0000115F0000115F0000115F0000D0
:10205000F55A0000115F0000115F0000155F0000DD
:10206000115F0000853E0000115F0000115F00005D
:10207000115F0000115F0000953E0000115F00003D
:10208000115F0000115F0000BD3A0000115F000009
:1020900000000000115F0000115F0000115F0000F0
:1020A000115F0000115F0000115F0000115F000070
:1020B0000000000010B5064C2378002B07D1054B1B
:1020C000002B02D0044800E000BF0123237010BDA4
:1020D000100500200000000024B60000044B10B5DD
:1020E000002B03D00349044800E000BF10BDC046E8
:1020F000000000001405002024B60000024A537EB0
:10210000DB09FCD17047C04600400042022310B5F5
:10211000084C227B13432373FFF7F0FF237EDB077A
:10212000FCD50123227E13432376FFF7E7FF608B64
:1021300080B210BD00400042F0B5464B87B01D682C
:10214000454B0F211A68EBB201936B4604001B79D3
:10215000C3712B0A0B4002931801A379E2700B4064
:102160000343A37166682B0B3C48DBB203933040FA
:102170001B031843030A2E0DDBB20E408B4333437F
:102180006060637113031B0D206804931903344BC3
:102190002D0E03400B43110D0591F0210902236020
:1021A0000B40110D0B43238050B2257105F006FB47
:1021B0002C4904F035FE011CFE20800505F03AF99B
:1021C000071CA06068B205F0F9FA264904F028FE61
:1021D000011CFE20800505F02DF9051CE060300093
:1021E00005F036FB204904F01BFE061C039805F0A1
:1021F0002FFB011C301C04F079FC2061029805F0D3
:1022000027FB194904F00CFE061C019805F020FB81
:10221000011C301C04F06AFC6061059805F018FB95
:102220001249061C381C04F0D3FF011C301C04F0BA
:10223000F7FDA061049805F00BFB0C49061C281C57
:1022400004F0C6FF011C301C04F0EAFDE061200030
:1022500007B0F0BD3060800034608000FF0FF0FFF9
:10226000FF0F00FF00007A440000204100F07F458E
:10227000802310B5094A5B02116A0B4313620223E3
:1022800007490A6C1A430A64064A11780B43137013
:10229000FFF734FFFFF73AFF10BDC04600040040CF
:1022A000000800400040004210B50100052812D887
:1022B00004F0A4F918031A0B0D0F00230B4A1000A9
:1022C000293228300170137010BD0223F6E7032372
:1022D000F4E70423F2E75A21054B064AFF3106488A
:1022E00007F06CFA0F23E9E70123E7E72C0500204C
:1022F000C6A800006AA90000DFA80000F0B5424CA3
:1023000085B001910292A38807005B055B0F0393E0
:10231000002908D0A3883D4A1A408023DB001343DC
:10232000A380FFF7EBFEA388029ADB07DB0F934243
:1023300008D00122A3880299934311400B43A38044
:10234000FFF7DCFE062F51D8380004F057F9560489
:10235000594447494C00192502231F26226933405E
:10236000B24313432361FFF7C9FE029B002B0BD03E
:10237000022F00D1182523693540254E2D021E401D
:1023800035432561FFF7BAFE0023022F04D00F2248
:10239000204B29331B78134022691F491B060A4032
:1023A00013432361FFF7AAFE019B002B01D0FFF727
:1023B000ADFEFFF7ABFE019B0500002B08D0A38804
:1023C000039A124912020B401343A380FFF796FEB3
:1023D000280005B0F0BD00252B00BEE71925FBE75E
:1023E00019251B23B9E718251A23B6E792210B4BB1
:1023F0000B4AFF310B4807F0E1F919251323ACE72D
:1024000019251823A9E7C04600400042FFF8FFFF46
:10241000FFE0FFFF2C050020FFFFFFF0AEA800004B
:102420003BA90000DFA8000070B5174C0500230091
:1024300028331B78012B25D00A339B00E3185868FA
:10244000124A0023C11704F02BFA80220023120342
:10245000801859410023CE173603320B801859419A
:102460000E03000D0643606AEA02D317F417C11782
:1024700004F016FA2300721080185941320004F05B
:10248000CBF970BD014EEEE72C05002000F8FF07E8
:1024900010B5FFF7C9FF06F04DFF0022024B06F012
:1024A0003DF907F005F810BD0000B03EF7B5FFF7A5
:1024B000EFFF0F4C071C65692069291C04F0BAFF67
:1024C000E6690190311C381C04F0B4FF011C01982E
:1024D00004F07EFE311C071CA06904F0ABFF011C58
:1024E000381C04F09DFC291C04F000FBFEBDC04616
:1024F0002C050020F0B585B00390002943D03A4B5D
:10250000002228331B78012105200293FFF7F6FEF5
:1025100004000020FFF7C8FE002201210520FFF77C
:10252000EDFEC003030B01930023E2035010D1170B
:102530000093009B019CC0186141002304F06CF9DA
:10254000294BD8620120FFF7AFFE009A0121062037
:10255000FFF7D4FE05000220FFF7A6FE009A012136
:102560000620FFF7CBFEEA03C3030098190B5610B1
:10257000D717009B8019794104F04EF91A4B586324
:102580000298FFF791FE0398FFF790FF164C071C87
:10259000E568A068291C04F04DFF66690090311CB5
:1025A000381C04F047FF011C009804F011FE311C98
:1025B000071C206904F03EFF011C381C04F030FCAD
:1025C000291C04F093FA206206F020FF0022074B3A
:1025D00006F0A4F80022064B05F07AF906F074FE26
:1025E000606205B0F0BDC0462C05002000003041FF
:1025F0000000E03F10B5010000220520FFF77EFE3D
:10260000FFF712FF064C8000A06406F093FE002244
:10261000044B06F083F806F04BFF606410BDC04623
:102620002C0500200000B03EF8B506006C4B0C00F5
:102630006C4A59680A435A605A78D209FCD16A4AEE
:102640005A805A78D209FCD1FF27032003F05CFEA0
:10265000664B1D68664B1A686B01D20E1F4017430C
:10266000FFF74CFDAB065B0F1B02624D3B432B8516
:10267000FFF744FD3000083808282AD803F0BEFFD1
:102680002F293129050505050500002380277F0036
:102690003B43AB80FFF732FD0C2E36D823D0FFF73B
:1026A000E7FD3F23EB70FFF729FD00220121022007
:1026B000FFF724FE00230400EB70FFF71FFD20004E
:1026C0000121FFF717FF0120FFF794FF34002000DE
:1026D000F8BD7D21484B494A494807F06FF830233F
:1026E000D4E72023D2E7002CD9D0202C60D044D8C6
:1026F000042C6BD013D8012C55D001231A00022CC6
:1027000013D0404B3D4AB921E6E7002CEDD1300013
:102710000D38032856D803F071FF5953514F082C38
:1027200044D004231A00102CEBD130000C38C0B276
:102730004400A41AE10F091949100C1C49B20429DC
:1027400046DD0424341BE4B2111C042A00D9042100
:10275000081A021C40B204283EDD04221201134371
:10276000DBB2AB70FFF7CAFC1023AA881343AB801F
:10277000FFF7C4FCA642AAD191E7BC421CD006D800
:10278000402C1BD007231A00802CCED0B9E7802321
:102790009B009C420ED08021F73BFF3BC9001A00F2
:1027A0008C42C2D0ADE700231A00BEE70323FBE74B
:1027B0000523F9E70923F7E70823F5E70623F3E7FD
:1027C0000423F1E7104B0D4AD52185E70223EBE7FF
:1027D0002106B7D50024B5E71106BFD50022BDE715
:1027E000000C0040030001001E4300002460800034
:1027F000206080000040004240A8000016A90000B0
:10280000DFA800005BA8000086A8000070B50C4C93
:102810002000FFF791FCFE239B05236280235B03CE
:102820006362012323852300064A2C3323CA23C372
:1028300023CA23C3044B6364044BA36470BDC04626
:102840002C05002028A8000033335340CDCC3400A1
:1028500010B5152003F002FE040003F09DFB0E4BA3
:102860001A681860002C02D1801A1D2813D96342FF
:102870005C410223094A64001078117899430C43A3
:10288000147013781178434004209B07DB0F9B00E2
:1028900081430B43137010BDA805002000000020E9
:1028A000002210B50C0001001000FFF727FDFFF714
:1028B000BBFD206010BD0000F7B50C000022010038
:1028C0000120FFF71BFDFFF7AFFD20600190802086
:1028D0002649274A4000535A8C469BB20024834223
:1028E00009D1515A994203D18423DB00D45AA4B2AE
:1028F0000634A4001459832300272600DB00D318D4
:1029000018685968801BB9411860596039001C6803
:102910005D68019800196941186059608423DB00E3
:10292000D15A0198063189005050D05A3900FE28FA
:1029300002D8D15A013189B2D1526346D05AD15A04
:102940000023FF241D0080B284425D416046491986
:1029500089B2115283216446C90051180868496838
:10296000125B92B203F07CFFFEBDC0462204000061
:102970000000002010B5FFF797FC10BD70B50D00EA
:1029800014000100022001F03BF82900032001F0AF
:1029900037F82100002001F033F870BDF0B51D1CA0
:1029A00085B0830003932A4F2A4B029282000600CF
:1029B0000C003800D15803F068F9029B002B13D1AA
:1029C000052E3ED8300003F019FE030320262E39D1
:1029D0000121002231400220FFF790FCFFF766FD45
:1029E000051C002C00D10234281C06F00FFD0094B9
:1029F00002000B00380003F079FA174B039A3800F5
:102A0000995803F053F905B0F0BD144B1D6A002C22
:102A1000EAD10634E8E70020FFF7ECFD051C002CA6
:102A2000E2D10434E0E70D4BD86A06F083FC0022C3
:102A30000B4B05F073FE06F03BFDEFE7074B586BC1
:102A4000F3E7FB21074B084A4900084806F0B6FEA9
:102A5000A00A002064AA00007CAA00002C05002027
:102A60000000B03ECFA9000038AA0000E0A9000095
:102A700070B57649032000F081FB00230122082174
:102A8000042000F015FC01F037F80121062003F0C6
:102A90006DFC0121072003F069FC0121142003F0E3
:102AA00065FC6B4800F088FF00220621022000F040
:102AB000B9FF00220721032000F0B4FF00221421F7
:102AC000100000F0AFFF0021152003F04FFC0222A0
:102AD0006049152002F076FFE1215F4C4902200099
:102AE00001F082FB152003F0B9FC00280CD103F0A3
:102AF00053FAF530FF30050001F070F8002803D1DB
:102B000003F04AFAA842F7D301F068F8002864D02D
:102B10007F2219210020FFF731FF03F03DFA4F4BD0
:102B2000C518200001F0B0FC002803D103F034FAEE
:102B3000A842F6D3200001F0A7FC00284DD0484958
:102B4000200003F0B3F80A22FF210020FFF716FF50
:102B50004449200003F099F800F058FC424E200050
:102B6000310003F0A3F84149200003F08EF88021E2
:102B70001020C900FFF758FD0500102831D13100A1
:102B8000200003F093F80022002311000120FFF73A
:102B900005FF0022002311000220FFF7FFFE344949
:102BA000200003F072F8334D3348290000F0DCFCBC
:102BB0003100200003F07AF83049200003F065F876
:102BC00029002F4800F0F2FD3100200003F06EF8DC
:102BD0002C49200003F06AF870BD00221921FF2063
:102BE000B4E72949200003F050F80A221021200000
:102BF00003F0A9F82549200003F047F80A2229002C
:102C0000200003F0B0F8280008380728BBD803F0EC
:102C1000EBFC04BA0ABA0E1216190022FF201100AA
:102C2000FFF7ACFEAFE7FF2200211000F8E700221B
:102C3000FF210800F4E7FF2200201100F0E7FF2247
:102C40000021F6E70022FF21EFE7C04600127A00DC
:102C50001027000051280000A00A0020881300005F
:102C6000D4AA0000F3AA00000BAB00000FAB0000D9
:102C700048AB000075290000B928000066AB0000D1
:102C8000A12800008CAB000023AB000040AB00008B
:102C9000F8B5144F050038000E00002401F0A6FB23
:102CA000A0421AD0380001F0DDFB3378E8543378C5
:102CB000EA180133DBB21F2B00D9230033701378DD
:102CC0000D2B0CD80849D94001238B4307D1137031
:102CD00033702C78631E9C41E4B22000F8BD0024C0
:102CE000EC77FAE7A00A00200124000010B5244C7C
:102CF00024492000FFF7CCFF00281AD022492000E9
:102D000007F042F92149002835D02149200007F079
:102D10003BF900280ED11F491F4802F0C7FF0120D0
:102D20001E490B780A78DB07DB0F434082431343CD
:102D30000B7010BD1A49200007F026F9011E05D1BD
:102D4000020000230120FFF729FEF2E715492000C9
:102D500007F01AF9011E03D1020000230220F2E756
:102D60001149200007F010F9011E03D102000023D1
:102D70000320E8E70D49084802F098FFD9E7C0466C
:102D8000780500209805002087A900008CA9000084
:102D900091A9000097A90000A00A002000000020CF
:102DA000AEA90000B3A90000B7A90000BEA90000A9
:102DB000F0B5D14C87B023785B0708D50421227881
:102DC00023788B432370930701D400F0EFFDCB4DA4
:102DD0002B78002B2BD0012000F07EFB002305AECA
:102DE0003000337000F0D4FC01236A46C4491372EA
:102DF000071C03F0FDFC002801D16B4618726A46DF
:102E00003378127A1343DBB23370BE4A002B2ED1D3
:102E10001678002E21D1300000F05EFB10222378BE
:102E20002E7093432370B84B1E70B84B1E602B78E6
:102E3000002B7BD12378DB062CD403F0ADF8B34B09
:102E40001B68984226D900F047FD002864D100F0A5
:102E500055FD08232278134367E0381C06F0D6FAA4
:102E6000202220616161237893432370DFE72023D0
:102E7000217800200B43237000231370832200214C
:102E8000D200A218106051608422D200A352A04A3E
:102E9000A352CCE72378DB0648D5012105A800F032
:102EA00039FD002800D1BFE0059800F04FFD06F085
:102EB00041FA0022974B05F027F800220023060074
:102EC0000F0003F047FC002801D00026002708224D
:102ED000A660E7602378300093432370237892182C
:102EE0009343894A2370137839000133DBB202938C
:102EF0006B461B7A13700022874B03F03FFC0028BF
:102F000000D09BE0029B012B00D997E003F044F82E
:102F10007E4B6430186009E000F08CFC10232278AE
:102F20001343082223702378934323702378DB070D
:102F30002CD503F031F8794D2B68984226D903F04F
:102F40002BF8FA2300229B00C018110028600023F0
:102F50000120FFF723FD0022002311000220FFF7CC
:102F60001DFD0022002311000320FFF717FD0022A2
:102F7000002311000420FFF711FD0022052000238B
:102F80001100FFF70BFD664802F088FE00F026FEF8
:102F9000002801D0FFF7AAFE02F0FEFF614D2B686A
:102FA000984276D902F0F8FF0022FA3028605E4D90
:102FB0001100280000F08BFE23781B0749D42378EA
:102FC000DB0646D4A668E7685849280002F05DFE93
:102FD000574A584B3000390003F0D0FB00285AD133
:102FE000554A564B3000390003F0C8FB00285BD02F
:102FF000534B30003900002204F086FF0323060003
:103000000F000293029B28005A1E93413200009346
:103010003B0002F06BFF029B4A4A9B009958280034
:1030200002F033FE484919E0484B1A69484B9A426E
:1030300000D87BE708232278134323700122102154
:10304000304B2A701A7023788B43237000F074FC85
:103050006CE723783F491B0700D43F49280002F062
:1030600014FE00210122280000F031FE23783B49A4
:103070009B060BD43A49280002F007FE22696369D7
:1030800003212800009102F031FF3649280002F0A8
:10309000FCFD07B0F0BD300039000022324B04F0D7
:1030A00033FF06000F009BE7304A314B30003900F8
:1030B00003F064FB002809D0164B300039000022D1
:1030C00004F022FF022306000F009AE7294B2A4A48
:1030D0003000390003F052FB0123039002930028D3
:1030E00000D08FE70B4B30003900002205F016FBB3
:1030F000039B06000F0084E7000000202804002046
:103100000000C8429A050020990500209C05002077
:103110002204000000408F4000002440A005002051
:10312000E8050020A4050020C0050020B0AA00008A
:103130003333F3FF64CDCD41CDCCCCCC7F842E4155
:1031400080842E4124AA0000BFAA00000030004263
:10315000006CDC0294AA0000A2AA0000B6AA00003B
:10316000C7AA0000CDAA000065CDCD41333333336B
:10317000333F8F40CEF7EF3F2B8716D970B51A4CEF
:1031800005002378002B2DD1082805D91021174BD5
:10319000174A184806F012FB174B994203D9174BF0
:1031A000134A1121F5E7164803F032FA154B2D02A8
:1031B0001D43154B5D805A78D209FCD1F0220309DA
:1031C000013B12031B0500041B0D104018430F4A5E
:1031D0000F4B9864DA6402230E4A11780B43137084
:1031E0000123237070BDC046BE0500200CAC00005A
:1031F00094AC00001BAC0000006CDC0255AC00007D
:1032000000808D5B01400000000C00402810000091
:10321000000800404408004010B5052810D80123DC
:1032200030228340134209D1243A134204D19B0730
:1032300006D0064B187810BD054BFBE7054BF9E7A8
:10324000054B064A4121064806F0B8FABD050020A4
:10325000BC050020B40500206AAC0000B7AC00003B
:103260001BAC000010B5052810D801233022834084
:10327000134209D1243A134204D19B0706D0064BCE
:10328000186810BD054BFBE7054BF9E7054B064AEF
:103290005221064806F092FAB8050020B005002039
:1032A000AC0500206AAC000036AD00001BAC00008D
:1032B00070B5082805D95821154B164A164806F04E
:1032C0007DFA082903D9154B124A5921F6E70D0258
:1032D000134C012A03D8002A0FD0002B0DD0D21A8C
:1032E000104912020A400243A2606278D209FCD15E
:1032F000002B02D080235B0300E00023C021890261
:1033000029430843184360606378DB09FCD170BD32
:103310000CAC000001AD00001BAC000088AC00004C
:10332000000C004000FFFF0070B506000D00140007
:10333000FFF772FF002830D1082D05D97721274BE0
:10334000274A284806F03AFA052E35D801233020BE
:10335000B340254A184028D10C210B421ED19907B1
:103360002AD0C021166A8900314311621A228021B5
:103370002D02C901294311431C4A51805178C909C2
:10338000FCD1002821D10C22134219D19B0721D056
:10339000174B0B3A1A70174B1C6070BDC021166A90
:1033A0000901314311621B22E1E7C021166A89013C
:1033B000314311621C22DAE70F4B094A8E21C0E724
:1033C00001220E4B1A700E4BE6E701220D4B1A70CC
:1033D0000D4BE1E7084B024AAA21B2E710AC00000E
:1033E000D2AC00001BAC000000040040000C004008
:1033F000BD050020B80500206AAC0000BC05002017
:10340000B0050020B4050020AC05002010B5002355
:1034100002221021014800F079FC10BDC0050020F7
:103420001FB509230393013B02930A330193013B28
:1034300000930322103B0421024800F0F9FC05B080
:1034400000BDC046C0050020F0B585B000900193D6
:10345000107814000D008847009B02A90198984736
:10346000029A194B03909A4216D9D31780211F0054
:103470000020561049008019794103F0CDF9134B13
:10348000134AC318002693420CDD124BC018000DDE
:10349000401004D00136FBE780204004EFE7052E02
:1034A00000DD05262378B34206D0F0B22070A8478D
:1034B00003A90198009B9847012E01D00120A8473D
:1034C000039805B0F0BDC046FFFF0000CDCCFCFF67
:1034D000FFFF0F00CDCC04000F4B1A68002811D15C
:1034E00092070ED502211A688A431A609A689207D9
:1034F000FCD4C0238022DB0592015A618022520154
:103500005A6170479207FCD4022219680A431A6074
:103510009A689207FCD4F4E70028004270B50D00C9
:1035200001000F4803F074F804000020FFF7D4FFF7
:103530000C4BDC669A685203FCD46408A21C1A6720
:103540009A685202120FFBD1023C5C679A685202E1
:10355000120FFBD1002D02D00120FFF7BDFF70BD7F
:10356000006CDC020028004210B5002805D139218A
:10357000264B274A274806F021F9002903D1264B7C
:10358000234A3A31F6E7254BD86119620F20002112
:1035900002F0ECFE80218022214B890152019960CA
:1035A0009A60C023DB05596102205A61FFF734FE9F
:1035B000002821D11B4A04210230FFF7B5FE012368
:1035C00019490A781A430A70184A11780B43137084
:1035D0004022174B19780A431A70042219780A43BB
:1035E0001A70144B144ADA6399684906C90FFBD163
:1035F0001248FFF793FF10BD0220FFF733FE094B7F
:103600009842DCD00E4B024A5121B3E761AD000075
:1036100013AE000077AD0000B1AD000048040020FB
:103620000044004100D8B8054D4400414C440041DD
:10363000364400410028004205000200A086010037
:10364000C5AD000010B5C417010B0205230580208D
:103650000B4300210003801859410023CC17240399
:10366000220B1C0013001B184C4121031A0D0A43A6
:103670002415130B2105194300231005054A801852
:103680005941054A002303F0C7F8044BC018400015
:1036900010BDC046999951003333A300C1BCFFFF50
:1036A00070B5FFF7CFFF021E09D0C3171D004C21D4
:1036B000441004480019694103F0AEF870BD024897
:1036C000FCE7C0460000D0CCFFFFFF7F70B5FFF7DE
:1036D000E7FF0A4BC218002A0DD0094BA0259E69AE
:1036E000D3171900002450102D010019694103F06F
:1036F00093F8801B70BD0348FCE7C0460000F0FF54
:1037000048040020FFFFFF7F73B51A4C00232200FE
:1037100005002432E069216AFFF796FE631DDB7F16
:103720009B001B590024834200D8C41A124B134E2D
:10373000E418134B1349A3429B415B422B703000AA
:1037400002F0A3FA200005F0F5FD00220E4B04F074
:10375000E5FF0B00042102000091300002F0CCFBD9
:103760002B78002B03D12000FFF7B0FF76BD074870
:10377000FCE7C0464804002039B4FEFFA00A002040
:1037800033331B0057AD00000000B03EFFFFFF7F4A
:1037900010B5FFF7B9FF05F0CDFD0022024B04F094
:1037A000BDFF05F085FE10BD0000B03E10B500283D
:1037B00005D1D721164B174A174805F0FFFF0029FE
:1037C00003D1164B134AD831F6E7154B9860D960F0
:1037D0000021080002F0CAFD0021022002F0C6FD0F
:1037E000802180220F4B0901D20019601A600E4B14
:1037F000042019601A6000210C4AFFF795FD082289
:103800000B4B19880A431A80DA7BD209FCD110BD10
:1038100061AD0000DAAD000077AD0000B1AD000091
:103820002C0400208844004194000060006CDC02FD
:1038300000300042802210B50024104BD2001A60E4
:103840000F4B03220F4902201C7602F0BBF80E4BEF
:103850001C61DA7BD209FCD10C4A5A80DA7BD2098E
:10386000FCD1198802320A431A80DA7BD209FCD1D2
:103870008022074B12011A6010BDC0469400006000
:103880002C040020BD380000003000421040000031
:10389000980000600221074B1A888A431A80DA7B5D
:1038A000D209FCD18023044ADB0111690B43136167
:1038B0007047C046003000420018004010B5044B6D
:1038C0001C69FFF7E7FF0122024B5C611A7610BD0D
:1038D000003000422C040020064A10B590680123F5
:1038E000D1681032FFF7B0FD0023034A82425B41EA
:1038F000D8B210BD2C040020F5280000C023DB0541
:103900001A00802194320901116080229833D2007C
:103910001A60704770B5074D2C7EE4B2002C05D0BC
:103920006B690360002901D0FFF7E8FF0023200046
:103930002B7670BD2C0400208022034B12011A60EC
:103940008022D2001A60704794000060134B70B55B
:103950001A681C68801AC517010B02052B05802008
:103960000B4300210003801859410023CD172D037C
:103970002A0B12184B411903100D0843084A191558
:10398000002302F08DFF0023064A80185941064AA1
:10399000002302F041FF001B70BDC0462C04002034
:1039A00000E1F505009F2400003E4900014B5A69E3
:1039B0001A6070472C040020002170B50E4A0500E3
:1039C0000800FFF7B1FC02230C4CE26B1343E363E6
:1039D000A3685B06FCD42900074802F019FE2064A6
:1039E000A3681B06FCD40223226813432360A36848
:1039F0009B07FCD470BDC046006CDC020020004276
:103A000070B5074C0500206C1C354843FF2102F0BF
:103A1000FFFDAD002851A3685B021B0FFBD170BDF9
:103A200000200042F0B50C00204D9BB0029229000E
:103A30005822070004A805F027FFA40004ABE358B0
:103A40001F24DEB21B065B0F3440DA0118490392D3
:103A5000A2185218012110780143117062080192D6
:103A6000002B0CD1092C0AD829000A22583104A8AD
:103A700005F00AFF04AB1B5D0421002B00D10521DA
:103A8000F30700D50901039A019B9446094A634450
:103A90009B181A7838000A43D2B21A70064B029962
:103AA000DE55FFF7ADFF1BB0F0BDC0464CAE0000C9
:103AB0004044004130440041DC050020002310B5A3
:103AC00009490A480B820A4B02681B8A9B045B0D5A
:103AD000D21A541EA24103601023064C22708A7B26
:103AE00013438B7310BDC046002C0042E405002038
:103AF00000500041E005002070B50320FFF78CFB6B
:103B000000280ED12E4A04210330FFF70DFC2C4D66
:103B10002C49280002F07CFD0123400806D0013327
:103B2000FBE70320FFF79EFB0500F1E7042B02DD16
:103B3000043B5B0804331A00072B00D9072201203D
:103B400001009140042B04DD1F4B0100D31883407A
:103B500099401E4C120223881A4392B22280E37BC2
:103B6000DB09FCD1C8335943280002F051FD184B42
:103B7000984200D9180080B22083E37BDB09FCD196
:103B8000C420144B80001A5813491140C02212045B
:103B90000A431A508022D2021A601023627B134318
:103BA0006373E37BDB09FCD1228802331343238058
:103BB000E37BDB09FCD1072002F024FA70BDC0468C
:103BC00000D8B80510270000FEFFFF7F002C004240
:103BD000FFFF000000E100E0FFFF00FF014B18784D
:103BE0007047C046E005002000207047704710B5C0
:103BF00004000021807A02F005FC012002F024FA82
:103C0000A07A012102F0FEFB012002F01DFAA07A49
:103C1000002102F0F7FB642002F016FA10BDF8B59F
:103C200005000F0000240126390021412B193140E5
:103C3000D87A013402F0E6FB042CF5D12800FFF716
:103C4000D6FFF8BDF8B505000F00002401263900A5
:103C500021412B193140D87A013402F0D3FB082CD2
:103C6000F5D12800FFF7C3FFF8BD70B504000D00C3
:103C7000007A110002F0C6FB607AFF2802D0002112
:103C800002F0C0FBE37CDB0604D529002000FFF72F
:103C9000D9FF70BD29092000FFF7C1FF29002000CE
:103CA000FFF7BDFFF5E710B50122FFF7DEFF0120AA
:103CB00010BD10B50022FFF7D8FF10BD10B50121CF
:103CC000FFF7F7FFFA20C00002F0BEF910BD10B5F3
:103CD000131C032A00D90323C27DDBB29A4201D808
:103CE000013AD3B2C3181B7ECB1880214942194335
:103CF000C9B2FFF7DEFF10BD04230C2110B5027D11
:103D0000134303751143FFF7D4FF10BDF8B504004A
:103D1000012A03D9C57C08202843E0748020A176BD
:103D2000C0014031E2752083E176002B05D0012AE5
:103D300003D10423E27C1343E374207A012102F0CF
:103D400015FB607AFF2802D0012102F00FFBA07A58
:103D5000012102F00BFB250010260827E17C2A1B1D
:103D60003B00314200D104230135934204DDA87A9F
:103D7000012102F0FBFAF1E72B4802F065F9207A05
:103D8000002102F03FFBA07A002102F03BFB607AA9
:103D9000FF2802D0002102F035FBE17CCB062DD4B8
:103DA00003212000FFF73BFF204802F04DF90321DB
:103DB0002000FFF734FF1D4802F046F903212000E0
:103DC000FFF72DFF962002F03FF902212000FFF7B8
:103DD00026FF2021E37C20001943FFF76AFF04231C
:103DE00020002375FFF788FF2000FFF767FF0223FD
:103DF000062163752000FFF75CFFF8BD2025200039
:103E00002943FFF756FF094802F01EF9E17C200024
:103E10002943FFF74EFF962002F016F9E17C2000BF
:103E20002943FFF746FFD4E750C300009411000078
:103E3000F7B504000092124A1F0022606A4608ABE0
:103E40001E7809AB1D7812780AAB1B7862726A463D
:103E500001930BAB1878002312792172A772E672D6
:103E600025736273A07363602000E373237463742B
:103E7000A374E37401221021FFF748FF2000FEBD68
:103E8000B8AE000010B5024801F0E1FC10BDC0461C
:103E90002C08002010B5024801F0D9FC10BDC04626
:103EA000E8050020F7B501240326154F1549380011
:103EB00000F042F81449154800F03EF8144915483E
:103EC00000F03AF81449154800F036F8144915483E
:103ED00000F032F8144D1549280000F02DF8390093
:103EE0000096230001940022114801F029FC00965D
:103EF000290001941E231F220E4801F021FCF7BD6A
:103F0000700A002000080042000C0042780A0020DD
:103F100000100042800A002000140042880A00209D
:103F200000180042900A0020980A0020001C00425D
:103F30002C080020E8050020002303710160704771
:103F40009446F0B59E1E721E964162460568920721
:103F50002F6836063A4332432A60072505AC247899
:103F60000068A4012940214342680024022B00D0AC
:103F70005C03114321434160F0BD30B5C0250368A7
:103F8000AD031C6812052A402243C0240904A40280
:103F900021401143196003685A6814435C6030BDC6
:103FA0000123026811680B43136003681A68D20783
:103FB000FCD4DA69D207F9D4704702230268116889
:103FC0000B4313600268D3699B07FCD470470268F7
:103FD000137E9B0702D40379002BF9D100230371D0
:103FE0007047002203685A8370470368187E4007B1
:103FF000C00F70470368187EC009704780230268AD
:104000005B42117E0B43137670470368588B800721
:10401000C00F704702230268518B0B4353837047D4
:104020000368187EC007C00F70470368188DC0B2C0
:10403000704703681A7ED207FCD589B2198501231F
:10404000037118007047012203689A7570470122B6
:1040500003681A75704700000368214A30B593421F
:104060002FD0204A93422FD01F4A93422FD01F4A6D
:1040700093422FD01E4A93422FD01E4A93421FD103
:104080000E2319220121032599401B48C0240160F9
:1040900099082B40AB40FC359D4089000918A400CD
:1040A0000859A843C0259D402B0003430B51802392
:1040B000DB011A43114B5A805A7852B2002AFBDBBB
:1040C00030BD09231422DDE70A231522DAE70B238A
:1040D0001622D7E70C231722D4E70D231822D1E7A5
:1040E00000080042000C0042001000420014004290
:1040F00000180042001C004200E100E0000C0040FB
:10410000F8B504000F0016001D00FFF7A5FF200002
:10411000FFF746FF1C21BB000B4071072268090C0A
:104120000B431360842322689375012F1AD1102149
:10413000012E00D008390C4B69431868C00002F00A
:1041400067FA0722216802408B895203DB04DB0CEB
:1041500013438B81226803049089DB0C400B4003DE
:1041600018439081F8BDC0468004002000207047AD
:1041700070B50F26CB1D013902003240D5B22C009C
:1041800000093034092A00DD07341C70013B8B42E2
:10419000F2D170BD10B50C000B4B1868FFF7E8FFAB
:1041A00021000A4B08311868FFF7E2FF2100084B95
:1041B00010311868FFF7DCFF2100064B1831186832
:1041C000FFF7D6FF202010BD0CA0800040A080008B
:1041D00044A0800048A0800008B4024B9C461038E0
:1041E00008BC604795410000704770473F2070470A
:1041F00013B56B460268D971073354681900012260
:10420000A04716BD70B50A260B7892B06E440233F3
:1042100005000B703C220021300005F03EFB3948C0
:1042200001AC069038482421079006202077684684
:10423000364AA1742281364A364BA281FD3AFF3AB2
:104240008018C177684623390630C1776846073041
:10425000C17702A8C1770720F277032608316944A5
:10426000C87703A9CE7710212B366E44317009260A
:1042700021851F3169440E700CA9053E0E70332153
:104280002380022369440B7006360DA90E70224963
:104290003536A1863B216E44307010A86274E277F7
:1042A00002703D3269446A440B7013704021002251
:1042B000E37023716371A37341336B4421871970D9
:1042C0005A702B7DC039A370A37263770133DBB2C0
:1042D000A3776A7D0B200D0068441543C577312014
:1042E000684403703A23501C6B4418704123023217
:1042F0000A436B441A7021004222084800F018FD5E
:1043000012B070BD10010424020605240904000047
:1043100001020000080B000007050000FC0A002055
:1043200008B4024B9C46103808BC604705420000A8
:1043300070B5027D0B790C0000259A420BD10B78E9
:104340004E78A12B09D1212E05D107221B491C48EB
:1043500000F0EEFC0135280070BD212BFBD1202E92
:1043600022D107221549164800F018FC9622134B5B
:10437000D200196891421DD1DB79DB071AD4FA20EB
:1043800002F0E4F800210E4800F0DAFD0125232EAA
:10439000E1D1E378A2781B0213430A4A00210848BE
:1043A000136000F0CDFDD6E7222EEFD18A78034BC3
:1043B000DA71DBE702F0D4F8E4E7C04674040020C9
:1043C000FC0A00207004002008B4024B9C46103800
:1043D00008BC60473143000010B5082200210248A4
:1043E00005F05BFA10BDC0467404002010B5417D95
:1043F000006A013100F0FCFA034B1B6801335A1EBE
:104400009341181810BDC0467C04002010B5417DB2
:10441000006A023100F002FB10BD10B5417D006A58
:10442000023100F0C9FA10BD70B50D00417D0400E5
:10443000130002312A00006A00F0C4FB002801D1F9
:104440000123636070BD000010B5054C23685A1C41
:1044500004D103685B69984703002060180010BD11
:104460007C040020074A0300106810B5411C03D0EB
:1044700001235B42136010BD597D186A013100F0C1
:1044800051FBF8E77C04002010B501F085FDF42312
:10449000FF330024984207D9044B0A20DC79631EBD
:1044A0009C41E4B201F0AEFD200010BD7404002078
:1044B0000020704770477047FA239B0010B5836057
:1044C0000F4B0022C3820300283383610D4B04008D
:1044D0004260C2611800503323610830631D2162BD
:1044E0002060DA778323A362813BE3628033236316
:1044F00001F090FB2100103101F05DFB200010BDA8
:104500000302000018B30000022110B5094B1A681D
:10451000437D5B01D318FF339C7A21439972437D1D
:104520000133DBB25B01D3180122FF33997A0A43CE
:104530009A7210BDB40F002010B502490248FFF76F
:10454000BBFF10BDFC0A0020A00A0020704710B578
:10455000040001F0ADFD200010BD0000F0B582297F
:1045600019D1C3B2294D5A01AA189169284C80016A
:104570000C40C02189052143916126490833401828
:104580007021506128685B011A5C8A431100302257
:104590000A431A54F0BD0029FCD1C026C1B21B4CFD
:1045A0004B01E3189A681A4DB6052A4032439A60C7
:1045B000194A800182185A600A00072724680832C5
:1045C0005201115DB9430F000121394311559F6913
:1045D00010493D4040182E439E6158617020115D86
:1045E0008143080010210143115599680B48A21816
:1045F000084080214903014399609968890B890328
:104600009960402311790B431371C3E7B40F002065
:10461000FFFFFF8F280B0020E80C0020FF3F00F079
:10462000EFF3108303600123436072B670470368A1
:10463000002B02D162B6BFF36F8F704773B5836DE5
:104640000400002B1BD10600A83635786846FFF71A
:10465000E7FF019BEDB2013B02D33578EDB2FAE7FB
:1046600068460193FFF7E3FF002D01D1002076BDDE
:104670002300A4331868A0342368C01AF7E76846FB
:10468000FFF7CEFF22000025019BF432013B02D34D
:104690001578EDB2FAE768460193FFF7C8FF002DE1
:1046A000E4D02300F0331868EC34E5E710B5436D2F
:1046B0004468DBB25A01A2189168094808330840DF
:1046C000802149030143916091685B01890B890353
:1046D00091602268D318402219790A431A7110BDDB
:1046E000FF3F00F0F7B5436D4268DBB219000400EC
:1046F0000831106849014118C979C90711D55B0112
:10470000D21893689B049B0C0CD12000FFF7CEFFBE
:1047100063681A68636DDBB208335B01D3187F22CC
:10472000DA71F7BDE16D002923D12100A4310B60BE
:1047300023000125AC33E56568465360FFF770FF41
:10474000260020002100019BA836013BF430F53102
:104750005A1C33D0357002785F1ED2B20A700A78C4
:10476000002A04D120000193FFF7A0FFE8E73B00F7
:10477000EEE72100F0310B600023E3652300603396
:1047800053606846FFF74CFF0125260020002100FA
:10479000019BF436013BA830F5315A1C0ED0357020
:1047A00002785F1ED2B20A700A78002A04D1200073
:1047B0000193FFF77BFFE8E73B00EEE768460193D4
:1047C000FFF735FFA4E737B56B46DC1D00230D006E
:1047D000237001F01FFA210001F0AAF92B681818C4
:1047E000286020783EBD00000078002810D001210C
:1047F000084B1B681A898A431A810822198B0A43BD
:104800001A830422198B0A431A830022024B1A606E
:104810007047C046B40F0020AC0F002010B50F4AFF
:1048200093699B0B9B03936113680222FF331A72F7
:104830009879823A02439A711A7A9207FCD57F24BA
:10484000074A2140937A0800A343190080230143BB
:104850009172917A5B420B43937210BDB40F0020AA
:104860000050004110B50C0001F0D4F9210001F016
:1048700092F9002804D1034A93699B0B9B0393612F
:1048800010BDC046B40F0020F8B50D00832A19D121
:10489000CBB23B4C5A01A21891693A48AD0108408D
:1048A000C021890501439161374920686D18702145
:1048B000083355615B011A5C8A43110040220A43A8
:1048C0001A54F8BD022A55D1304A8B009858002856
:1048D00002D003685B699847F82001F0E5FB04000B
:1048E000274E2B4B4660036040220021083004F025
:1048F000D4FF22000023A032A3646565E36423652E
:10490000A365E3655360D3641372136013654C327F
:1049100013725372FF222B001340590171188868DB
:10492000184F08330740C02080053843886030683E
:1049300007265B01195CAD00B1430E000321314332
:1049400019542300616D60681140490141186033BA
:104950004B60616D63680A401B6852019B1801221D
:10496000FF33997A20000A439A72FFF79FFE074BA4
:104970005C51A6E711002800FFF7F0FDA1E7C04653
:10498000B40F0020FFFFFF8F280B0020000B00203A
:1049900080B3000070B505000124064BA200D25878
:1049A000002A06D0210028000134FFF76DFF0A2CF1
:1049B000F3D170BDD40A00200B4BCAB20B48890159
:1049C000C9185301C318596199690832890B8903C1
:1049D0009961036852019A180223D3715179823B7D
:1049E0000B4353717047C046280B0020B40F0020C2
:1049F000084B8A00D05810B5002803D003689B6884
:104A0000984710BDC9B2044B490159188868800401
:104A1000800CF6E7000B0020B40F002010B50C004E
:104A2000FFF7E6FF00280CD0064BE4B21B68083401
:104A300064011C19802362795B4213436371022372
:104A4000E37110BDB40F0020F0B51C00304B85B0F1
:104A50001B6807000D000292002B55D02D4E3178B7
:104A6000C9B2002902D1192001F0CCFC64233370B3
:104A7000294BAA00D058002808D0036822005B68A0
:104A8000029998470400200005B0F0BD29003800C5
:104A9000FFF7AEFF844204D929003800FFF7A8FFD2
:104AA00004000121EBB21D4E03935B010193F21848
:104AB00093689B0B9B039360019A336802989B1841
:104AC000FF335A7A0A435A72154BA901C9182200BA
:104AD00004F0DAFE002CD6D029003800FFF788FF5A
:104AE0000028D0D14021039B326808335B01D318E2
:104AF0001879014319710121D971019BD318FF3332
:104B00009A7A0A439A72BEE701246442BBE7C04620
:104B1000AC0F00201C0B0020000B0020B40F002065
:104B2000E80C002013B56B46DC1D22000123FFF7C3
:104B30008BFF012801D1207816BD01204042FBE700
:104B400070B5CBB2124A13485C0189018918021969
:104B500051609168104D08330D408021490329436D
:104B6000402591609168890B8903916001685A0121
:104B70008A1816793543157195796D06FCD55B0158
:104B8000C918CB79DB07FCD500198068C0B270BDAD
:104B9000E80C0020B40F0020FF3F00F070B50D00BE
:104BA00000211400FFF7CCFFA04200D92000002311
:104BB0000349A34203D0CA5CEA540133F9E770BD4C
:104BC000E80C0020F0B51E003F4B85B01B680F00BD
:104BD0000192002B3FD08023DB019E423BD83B4C0F
:104BE0002178C9B2002902D11A2001F00BFC6423FC
:104BF00000252370364BBA01D3180293002E2CD017
:104C0000344B1B680393FF233B401C000093083484
:104C1000039B64011C19A379DB0921D02E4B2F497A
:104C2000186801F0F5FC2E4B1721584301F0F0FCF9
:104C30002C4BE279920713D4DA5D002A01D10138B6
:104C4000F7D20122DA55009B5A01224B9B189A6930
:104C5000920B92039A6101256D42280005B0F0BDC8
:104C60000022204B3400DA553F2E09D9009B402406
:104C70005A01184B9B188022996912060A439A61BF
:104C800022000199029804F0FFFD009BA1045A0143
:104C9000104B890C9B18029A2D195A619A69361B80
:104CA000920B92030A439A61009B039A08335B01BB
:104CB000D3180222DA715979823A0A435A71019B58
:104CC0001B1901939AE7C046AC0F00201D0B002072
:104CD000280B0020B40F00208004002040420F0069
:104CE000701101001F0B002070B50D001C000D4B52
:104CF000AE01F61811003000220004F0C5FDEDB23F
:104D000009496D014D196E61AB69084A20001340D5
:104D1000AB61AB69A2049B0B920C9B031343AB6189
:104D200070BDC046280B0020B40F0020FF3F00F0EC
:104D3000F7B5104B01901B780F001500002B0CD11C
:104D40000D4B16001C78002C09D00C4E0C483488F2
:104D50002018641904F098FD34802800FEBD002E50
:104D6000FBD03A19330000210198FFF7BDFF24184A
:104D7000361AF4E7A80E0020A90F0020AA0F002081
:104D8000A90E0020F8B50F0016000024012A26D92C
:104D9000100004F065FD0500380005F0FFF803235E
:104DA00002220130400028706B7096420DD939788C
:104DB00000290AD0531CDBB20137A9549E4203D00C
:104DC0000232EC54D2B2F0E7320029000548FFF776
:104DD000AFFF441EA041C4B2280004F04BFD2000E8
:104DE000F8BDC046FC0A0020F0B50024012685B0BD
:104DF000184B0F0069461E7005000094FFF7E3FC96
:104E0000154B01A90B806A3BFF3BCB715A330B72E8
:104E1000009B8C7109334B800E4B4E7108711C70D6
:104E20003A00092F0FD00D4F09223E700C4E28007A
:104E300000943480FFF77CFF69462800FFF7C3FC2D
:104E4000328808493C702800FFF772FF012005B046
:104E5000F0BDC046A80E002009020000A90F0020E6
:104E6000AA0F0020A90E002070B5CE7892B00500E0
:104E70000C00022E0BD18B79C9792C4809021943F9
:104E8000FFF7B2FF411E8841C0B212B070BD00F002
:104E9000C1FE210000F060FE002803D0C117081AEF
:104EA000C00FF2E7012E0ED1E279A37912021A4364
:104EB0001F49112A13D8D2B2002A10D02800FFF7B8
:104EC00037FF0120E1E7032EDFD1A378002B08D1C3
:104ED000E279A37912021A431649032AEBD90A7818
:104EE000ECE7022B08D1E279A379120212491A43A6
:104EF0002800FFF747FFC8E7012B05D1E279A37926
:104F000012021A430D49F3E7032BBED141220100DF
:104F100001A804F0C2FC00F07DFE01A900F02CFE07
:104F2000E279A37912021A4301A9E1E7FC0A002001
:104F3000BAB30000AAB300009CB30000AEB30000F7
:104F4000CBB204495B01C9188B699B0B9B038B6136
:104F50007047C046B40F002037B5050048780C00F4
:104F60000B2810D801F04AFB061B0F2B0F404561A0
:104F7000494C5A5D097801AA002906D10223118003
:104F80002800FFF7B1FE01203EBD00231380284B0F
:104F90001B78012B00D1137002230021F0E78A78DF
:104FA0000023012A03D101AA1380224BF0E7204AF3
:104FB0001370214A93699B0B9B039361E3E78C7801
:104FC000012C06D100211B4B01AA1C70117023007B
:104FD000D6E70120002CD7D1154B174A18709369DA
:104FE0009B0B9B039361CFE789782800FFF716FCA2
:104FF000C9E72800FFF738FFC6E701230F4ACCE7CF
:105000000B780020DB06BFD12800FFF7C3FCA27895
:105010000A4B0B481A60FFF777FACAE70123094ADF
:10502000BBE78A78074B1A60C3E70020ACE7C046AD
:105030001E0B0020260B0020B40F0020AC0F002018
:10504000A00A0020B00F00204A4BF7B51E780500DB
:10505000002E00D07EE0484C23689A8B12070DD5B5
:10506000082231009A833000FFF778FA1022236873
:10507000FF33997A0A439A72404B1E6023689A8BD9
:1050800052071FD504229A833D4A1378002B0AD079
:105090001378013BDBB213701378002B03D101218D
:1050A0001A2001F0AFF9374A1378002B0AD0137891
:1050B000013BDBB213701378002B03D101211920BF
:1050C00001F0A0F92368FF331A7A920603D5202253
:1050D000597A0A435A721A7AD20623D569460800C9
:1050E000294AC0CAC0C0A268920B9203A2604022A3
:1050F000587902435A7160230A7828001A422AD14B
:10510000FFF72AFF2368FF33002827D080229979F0
:1051100052420A439A711A7A520603D54022597AAA
:105120000A435A727F2601252368FF331E722F001F
:10513000236808377F01DB19DB79002B07D0134B7D
:10514000AA00D05800280DD003681B689847013585
:10515000082DECD1F7BDFFF785FBD3E720210C4AE2
:105160009171D8E729000B48FFF7A5F92368DF19EB
:10517000FE71ECE7A90F0020B40F0020AC0F002057
:105180001D0B00201C0B0020E80C0020000B002051
:10519000FF500041A00A002010B50248FFF754FF5D
:1051A00010BDC046FC0A002080235B000380002362
:1051B000436007330372704783000148C01870478B
:1051C000D40A0020836C402B09D03F22036CC154C9
:1051D000036C013313400364836C013383647047B1
:1051E000F7B505006846FFF71BFA00264022019B31
:1051F000013B02D32E6D961BFAE768460193FFF739
:1052000016FAAB6D6846002B4FD1FFF709FA29005B
:10521000019BA831013B5A1C0CD00C785A1EE4B2F9
:10522000002C05D168460193FFF701FA2000FEBD6E
:105230001300F0E7684601930024FFF7F8F92A000D
:105240002900A0321368A431B4420ED008689842F5
:105250000BD92800591CEB181160603319780830FD
:10526000C9B2FFF7AFFF0134E9E709689942DDD120
:10527000002313600133AB656846FFF7D1F92F00B7
:105280002A000021019BA837013BF532581CC9D0E8
:10529000397010785E1E002805D011702800019327
:1052A000FFF704FAEBE73300F0E7FFF7B9F929005D
:1052B000019BF431013B5A1C06D00C785A1EE4B213
:1052C000002CAFD01300F6E7684601930024FFF7E7
:1052D000AEF92A002900EC321368F031B44202D052
:1052E000086898421DD8096899429FD100236846F2
:1052F0001360AB65FFF794F92F002A000021019B92
:10530000F437013BF532581C00D18BE73970107827
:105310005E1E002811D0117028000193FFF7C6F916
:10532000EAE72800591CEB181160AC3319780830F3
:10533000C9B2FFF747FF0134CBE73300E3E710B50D
:105340000400FFF74DFF206D10BD10B50400FFF7FE
:1053500047FF236D002B03D0E36CE418207A10BDC7
:1053600001204042FBE7F7B517000E000400FFF7ED
:1053700037FF6846FFF754F93F2200259446019B0A
:10538000013B5A1C19D0BD4215D2226D002A12D001
:105390000121226D4942002A0AD06046E26CA2181F
:1053A000117AE26C01320240E264226D013A226518
:1053B00071550135E7E7013BE3E768460193FFF7E5
:1053C00036F92800FEBD0000014B024A1A60704702
:1053D000B40F002000500041F7B50024514B0121CB
:1053E00005001A201C7000F0C1FF01211A2001F0F5
:1053F00009F84D4B012119201C7000F0B7FF012165
:10540000192000F0FFFF2023484A0F20D1690B43E9
:10541000D361012246490B7813430B70454B197831
:105420008143197006211C782143197042490C7878
:1054300022430A701A7802401A70602219780A43CF
:105440001A703E4B3E4A5A805F78FF09FCD13D48B6
:1054500000F09CFD01233C4C3C4E2268300011784A
:105460000B43137080223900520004F016FA2268B0
:105470009378DB07FCD456621F26354B1B68590B0B
:10548000980C9B01314030405B0FB14200D10521A7
:105490001F2800D10238072B00D1043B314089017D
:1054A000178D01912B4930400F40019939431185E7
:1054B000118D0700B143080038431085118D180382
:1054C000254B7F260B4003430C2013850823D178FE
:1054D00081430B430321D3702268D3788B43013976
:1054E0000B43D3702268137833401370042322686F
:1054F0001678334313702268C1241389A4008343B0
:105500001648138103591B021B0A035180230360B1
:10551000137813481943012311702B700021FEF7F3
:1055200063FEF7BD1D0B00201C0B00200004004093
:10553000584400413C44004159440041000C0040A3
:105540000640000099510000B40F0020B80F002061
:10555000246080003FF8FFFFFF8FFFFF00E100E0C5
:10556000A00A00200120704710B50368014A1B6A99
:10557000984710BD13040000FC30006A7047872371
:105580009B00C018C36880204000C01A7047030009
:10559000FC331A6A002A03D0DB69C018007D70470B
:1055A00001204042FBE710B504000069FEF7F8FC5B
:1055B00022000023FC329361D361136287229200A0
:1055C000A4186360A360E36010BD872310B59B003F
:1055D000C218D368002BFCD10069FEF7F8FC10BD9F
:1055E000F02001403039484248417047F0231B0108
:1055F0001940802306209B0099420AD00133FF33D3
:105600000130994205D0802302385B00994200D0D6
:10561000002070470F2001400020012903D00239EB
:10562000481E8141481C70478B23F0B5182685B071
:1056300002919B000400C05C330008214343324DBB
:105640001700EB18595600F021FF304B0821E05CA1
:1056500033004343EB18595600F018FF2C4BE25C23
:105660000393022A09D11133E05CFF2805D00821F9
:105670004643AE19715600F009FF8C26B600A05DB6
:10568000FF2819D0012100F071FE1822A35D2149E5
:105690005A43AB56AD18DB0158188D218900605074
:1056A0001D4901225B188E218900635069688A4078
:1056B0008F21890062501A600122029B110020692B
:1056C000FEF71EFD39002000FFF790FF39000500AE
:1056D0002000FFF79FFF390006002000FFF780FF42
:1056E00033000090290020690122FEF729FC0B4BB2
:1056F0002069E25C039BE15CFEF73FFC2069FEF75A
:105700005CFC05B0F0BDC046C8AE00002D02000034
:105710002F02000018440041144400412E020000F2
:10572000802210B504005200002104F0B6F82300D6
:105730000022FC335A6020009A60DA6010BD00003D
:10574000F7B51D0008AB1B780400009309AB1B786C
:105750001600019300234360FA239B008360114BE2
:105760000F00083303601430FFF7DAFF2000213008
:10577000FF30FFF7D5FF8B236A469B002761E65475
:10578000094B1278E554094B2000E2546A46084B55
:105790001279E2548C22313BFF3B9200A354103229
:1057A000A354FEBDCCB300002D0200002E02000069
:1057B0002F020000F7B5EFF310830093012301934C
:1057C00072B680260200FF25019BFC327600013B69
:1057D0005C1C0FD0D4685F1EB44209D054680155D8
:1057E000546801342C405460D4680134D460EEE72E
:1057F0003B00EDE768460193FEF719FFF7BD13B5CF
:10580000EFF3108300930123019372B6019B5A1E9C
:105810000192002B15D00300FC33DA68002A0DD06A
:105820009A68845C9A680132D2B29A60DA68013A66
:10583000DA606846FEF7FBFE200016BD01246442D4
:10584000F7E701246846FEF7F2FE6442F4E710B57C
:1058500004000069FEF7D9FB002805D02069FEF797
:10586000E4FB2069FEF7D6FB2069FEF7BEFB0028AB
:105870001BD02069FEF7D9FB010020001430FFF790
:1058800099FF8C239B00E35CFF2B0ED02300FC339D
:105890001A6A80235B009B1A092B06DC8D238F225A
:1058A0009B009200E358A2581A602069FEF7B8FBEB
:1058B00000280ED087239B00E318DB68002B14D050
:1058C00020002130FF30FFF79AFFC1B22069FEF7B8
:1058D000B0FB2069FEF78EFB002805D02069FEF79B
:1058E0008DFB2069FEF77DFB10BD2069FEF7AFFB45
:1058F000EFE70000F8B5040000690D00FEF790FB2B
:1059000087239B00E618002802D0F368002B34D0D0
:1059100001278022F3685200934223D1EFF31083D2
:105920003B4210D1174B5B68DB05DB0DF1D0103B20
:105930005BB2002B10DAF13A1340083B9B08124A85
:105940009B009B181B682069FEF76AFB0028E0D0CB
:105950002000FFF77CFFDCE79B08C0330B4A9B006D
:105960009B58F0E720002130FF302900FFF722FF8D
:105970002069FEF768FB0120F8BD29002069FEF7C9
:1059800058FBF8E700ED00E01CED00E000E100E06E
:1059900010B504001430FFF732FF8C239B00E35C4A
:1059A000FF2B0ED02300FC331A6A80235B009B1A66
:1059B0000A2B06DD8E238F229B009200E358A2580B
:1059C0001A6010BDF7B501921822162442433F4BCE
:1059D00007009B181C570091631C6ED0102C6CD0D4
:1059E0003B4B3C4E1D68002D27D1290044223A48EC
:1059F00003F053FF29004422384803F04EFF1022E1
:105A0000374B38491D60CA67C021C120364B490059
:105A10005A5080001958FF35A94319501A60334B6A
:105A2000334A5A8002233278134333707378DB0988
:105A3000012BFBD00122264B1A600125A54073697A
:105A400000212B437361380000F020FD009B002BE8
:105A500031D00027224B20499C461B68BA00BB422C
:105A60001DD16046013303608D501C4B0099995045
:105A7000072C19DD0123083CA4000721A140154A89
:105A80009B009B189A698A439A61019A042A12D84A
:105A90001000996900F0B2FD0B1214161800885816
:105AA000A842E1D00137D9E7A4000023E5E70522A9
:105AB000A2400A439A61ADB2F560F7BD0422F7E750
:105AC0000322F5E70222F3E70122F1E7C8AE000066
:105AD0004011002000180040FC100020B8100020E9
:105AE0004411002004E100E000E100E0000C00406F
:105AF00005400000F8B50024094B1B68A34200D8FC
:105B0000F8BD084E084FA5003369EA591A4204D07F
:105B1000064BEB589847EB5933610134ECE7C0462C
:105B20004411002000180040FC100020B810002094
:105B300070B50E0000254468002C0BD0236831009E
:105B40005B6820009847002802DB2D18E468F3E723
:105B500001256D42280070BD70B50D004468002C11
:105B600008D0236829009B6820009847002802D1AC
:105B7000E468F4E7200070BD70B50D004468002CA7
:105B800007D0236829002000DB689847E4682D18B7
:105B9000F5E72C7070BD70B50D004468002C08D07E
:105BA000236829001B6820009847002802D1E46878
:105BB000F4E7200070BDF8B542788B790D00017ACA
:105BC0009B18040000208B4222DC6368834219D1B9
:105BD0006560002623786A71EA792B719B1823701F
:105BE000AB79B34213D9AB68B7006078DF19FFF720
:105BF000E3FA3B68013603606378F6B20133637001
:105C0000EEE70B00D9680029FBD1DD60E1E7012058
:105C1000F8BD000070B50126054D064C2B683342D7
:105C200003D12000FFF7C0FA2E60200070BDC046EF
:105C3000481100204C110020F7B506000D000C00A3
:105C40008B180193019B671B9C4207D03368217816
:105C50001B683000984701340028F3D13800FEBD9E
:105C600070B5040008000D0004F098F923680200E4
:105C700029005B682000984770BD10B50B1E02D04C
:105C8000FFF7EEFF0300180010BD10B5FFF7F5FF9A
:105C900010BD10B503681B68984710BD10B50249C8
:105CA000FFF7DEFF10BDC0460CB4000070B5040065
:105CB000FFF7E3FF05002000FFF7F0FF401970BD7C
:105CC000F0B58BB06B461500002205330600DA777D
:105CD0000800012D00D80A2509AC290000F01EFD9E
:105CE000CAB2130037330700DBB2092902D8130008
:105CF0003033DBB2013C2370002FEED121003000A5
:105D0000FFF7BBFF0BB0F0BDF8B506000C00151E89
:105D100004D10368C9B21B689847F8BD0A2A0CD1A0
:105D200000290BDA2D21FFF7B4FF614207002A009A
:105D30003000FFF7C5FF3818EFE7D2B2210030007E
:105D4000FFF7BEFFE9E710B5FFF7DEFF10BD10B5A6
:105D5000002A04D10368C9B21B68984710BDD2B2AB
:105D6000FFF7AEFFFAE770B50400FFF7F0FF05009C
:105D70002000FFF793FF401970BD0000F7B51E002B
:105D8000089B05001700002B01DA0223089331005D
:105D90003A003300380003F07BFA4B49002814D155
:105DA0000122740064085242484B3800210003F07D
:105DB0006FFA00280FD10122444B524238002100D3
:105DC00000F0D2FC002806D141492800FFF748FF27
:105DD00004002000FEBDE0223E4B120638003100D8
:105DE00000F0CCFC002801D03B49EEE7E0223B4B21
:105DF00012063800310000F0ADFC0028F4D100227A
:105E000000233800310000F0A5FC002814D02D211B
:105E10002800FFF73EFF80231B060090F6180024A1
:105E200000202F49089B9C4208DA00222D4B0134A8
:105E300002F06AF8E4B2F5E70090F0E70B00020028
:105E40003100380001F044FD0F00060000F052FD63
:105E50000A22019001002800FFF732FF009B1C1866
:105E6000089B002BB5D0019803F09EFA02000B00AE
:105E70003000390002F0C4FE06000F0028001A4965
:105E8000FFF7EEFE2418089B5A1E0892A1D3154B6B
:105E900000223000390002F041FC0F00060000F043
:105EA00029FD0A22010000902800FFF709FF2418AD
:105EB000009803F079FA02000B003000390002F07C
:105EC0009FFE06000F00DEE700B40000FFFFEF7F3B
:105ED00004B40000FFFFEF4108B40000FFFFEFC172
:105EE0000000E03F0000244021AB000007B504990A
:105EF0000091FFF743FF0EBD37B5069904000091EE
:105F0000FFF73CFF05002000FFF7C8FE40193EBD2B
:105F1000FEE70000034B10B51B68002B00D098472C
:105F200010BDC0465811002070B50F490F4CA1425A
:105F300004D100F0C1F800F097F8FEE70C4D002303
:105F40008D42F6D0CA18E818A24205D3094B824206
:105F5000EFD00949002204E0006804331060F1E743
:105F600004C38B42FCD3E4E70000002010050020AE
:105F700030B60000100500207011002010B500F0B0
:105F80006FF8002801D100F055F810BD014B1860E2
:105F90007047C04658110020014B18687047C04632
:105FA0005C110020F7B51348012284461249134CB6
:105FB0008E68636805689B0E13400192886862686A
:105FC000019F920E3A4067463F6893420ED1BD4210
:105FD0000CD186420AD35B19FA254868AD00861BAE
:105FE00007486B437043000DC018FEBD3D00130011
:105FF0000600E3E75C11002010E000E000ED00E0A7
:106000005555000070B5041E10D0FFF7CBFF0500FA
:1060100000F025F8FFF7C6FF054B401B9842F7D963
:10602000FA23013C9B00ED18002CF3D170BDC04653
:10603000E703000010B5034A13680133136000F052
:1060400097FA10BD5C11002010B5002806D030234F
:106050000321584300F0DCFA0138FDD110BD704730
:10606000002070477047000010B500F0D5F803F02D
:10607000D3FBFFF7F7FF0120FFF7C4FF084C200018
:10608000FFF7AAF92000FEF7AFFBFCF7F1FCFCF7E5
:106090008FFE044B002BFAD000E000BFF7E7C046AC
:1060A000FC0A00200000000010B503F0D9FB10BD71
:1060B00010B503F0DFFB10BD1E2270B546484749FE
:1060C000436893431C3A1343436008238C6923437A
:1060D0008B61434C434B9C829C8A14439C82DC68BA
:1060E0001442FCD00124404A14701578254203D094
:1060F00055786DB2002DF8DB01249460547864B2B9
:10610000002CFBDB394C5460547864B2002CFBDB70
:106110008224E4015480547864B2002CFBDB022416
:106120009C840E34DD682542FCD0314CDC621024A6
:10613000DD682542FCD09D8C2E4C2C439C84102481
:10614000DD682542FCD002249D8C80262C439C8453
:106150004024DD683542FCD0DD682542F9D01024AA
:10616000DD682542FCD000249460547864B2002C91
:10617000FBDB214C5460547864B2002CFBDB1C6ABE
:106180001E4D2C4080251C621C6AAC431C620323FC
:1061900093601B4B536053785BB2002BFBDB0023F7
:1061A000FF240B72174A4B728B72CB72164B1A601C
:1061B000164B174A1B6811689A065B01C90E2340EB
:1061C000520F12020B431343124A13858023426875
:1061D0001343436070BDC0460040004100040040CE
:1061E0000C06000000080040000C00400105010002
:1061F000B905FF7D040A000000070300FFFCFFFF54
:1062000003060100006CDC02800400202460800092
:106210002060800000400042FA21314B10B5186820
:10622000890000F0F5F92F4B0138984256D82E49D5
:106230002E4A4860C020136A00061B021B0A034353
:106240001362002407238C600B608021136A090607
:106250001B021B0A0B431362FC22254B196A0A43DB
:106260001A62FC22196A92010A431A62A022196A70
:10627000D2020A431A62E0B20021013400F076F83B
:10628000142CF8D11B4B1C005A7852B2002AFBDBAD
:10629000194A5A80194B1A00597EC9090129FBD0A5
:1062A000E421C90099803F21D970537EDB09012B7D
:1062B000FBD0C02300205B011361907000F024F834
:1062C00063785BB2002BFBDB0D4B0E4A6380D37906
:1062D000DB09012BFBD04123537010BDFEE7C04604
:1062E00080040020FFFFFF0010E000E000ED00E070
:1062F00000040040000C00401E400000004000422E
:106300002140000000480042164A00B51300517EAB
:10631000C9090129FBD00138042816D81969124A85
:106320000A400F211A615A788A4300F067F903087E
:10633000060B0300110001220A435A7000BD110030
:106340000322F9E711000222F6E7F02311691B0589
:106350000B430F21136153788B43190002230B4326
:106360005370EBE700400042FFFFFFF0182330B509
:106370001D00040045430820204A551928560130C5
:1063800014D0032912D808006343D156D31800F063
:1063900035F902280E1B5868CB010221184A9B18B8
:1063A0001A1840321170012282405A6030BD58687C
:1063B000CB010621124A9B181A1840321170012293
:1063C00082405A609A61F1E75868CB0106210C4A75
:1063D0009B181A1840321170012282405A605A618B
:1063E000E4E75868CB010221054A9B181A1840328D
:1063F0001170012282409A60D8E7C046C8AE000002
:10640000004400411823F0B508245843114A1318DA
:106410001C5701341BD0012635005F688356BD40F0
:106420000D4ADB019A18906805420BD10C00601EE2
:106430008441D2194032107834400336A400B0436E
:1064400020431070044A9B18002901D15D61F0BD02
:106450009D61FCE7C8AE000000440041182310B560
:106460000824434307490020CA181457013408D0B0
:106470005B560549DB015B18186A5368D840012355
:10648000184010BDC8AE000000440041182242432D
:10649000F8B52C4E0300B218127A52B21400013231
:1064A0000ED0481C00240C280AD800F0A7F80720BA
:1064B000202020202020200B0B0B0B000124644205
:1064C0002000F8BD092905D10021D8B2FFF74EFF01
:1064D0000024F5E70A2902D1D8B20839F6E70024EA
:1064E0000B29EDD1D8B20A39FFF740FFE8E71820B1
:1064F0004343F2185568F3562C00134ADB016E082B
:1065000017389B18C9B204409E19002C0DD00F24D7
:1065100030363278090122401143C9B25B1931701B
:1065200040331A7810431870D2E732000F27303208
:1065300016785B19BE433143117040331A7810430B
:106540001870BDE7C8AE00000044004110B504005B
:10655000FDF7B0FF014B1C6010BDC0468404002055
:106560000122024B52421A607047C0468404002048
:10657000164A10B51368591C26D0013B1360002B36
:1065800022D172B6124B134A0433934213D9124AE2
:1065900001211000147D0C42FCD02021148BFF310E
:1065A0009B085B0021431183D3610C4B13800123B3
:1065B000027D1A42FCD0BFF34F8F094B094ADA60C3
:1065C000BFF34F8FC046FDE710BDC04684040020D6
:1065D00000200000030200000040004102A5FFFF70
:1065E00000ED00E00400FA0502B4714649084900D4
:1065F000095649008E4402BC7047C04602B4714639
:1066000049084900095C49008E4402BC7047C046F5
:10661000002243088B4274D303098B425FD3030AE1
:106620008B4244D3030B8B4228D3030C8B420DD3F4
:10663000FF22090212BA030C8B4202D31212090282
:1066400065D0030B8B4219D300E0090AC30B8B42C0
:1066500001D3CB03C01A5241830B8B4201D38B036E
:10666000C01A5241430B8B4201D34B03C01A524113
:10667000030B8B4201D30B03C01A5241C30A8B4256
:1066800001D3CB02C01A5241830A8B4201D38B0241
:10669000C01A5241430A8B4201D34B02C01A5241E5
:1066A000030A8B4201D30B02C01A5241CDD2C30957
:1066B0008B4201D3CB01C01A524183098B4201D3D3
:1066C0008B01C01A524143098B4201D34B01C01ABE
:1066D000524103098B4201D30B01C01A5241C30836
:1066E0008B4201D3CB00C01A524183088B4201D3A5
:1066F0008B00C01A524143088B4201D34B00C01A91
:106700005241411A00D20146524110467047FFE7FC
:1067100001B5002000F006F802BDC0460029F7D000
:1067200076E770477047C0468446101C62468C4628
:10673000191C634600E0C0461FB501F087FF002822
:1067400001D40021C8421FBD10B501F0DFFE404258
:10675000013010BD10B501F079FF002801DB0020E9
:1067600010BD012010BDC04610B501F06FFF00281C
:1067700001DD002010BD012010BDC04610B501F0A4
:1067800001FF002801DC002010BD012010BDC04623
:1067900010B501F0F7FE002801DA002010BD01203D
:1067A00010BDC0468446081C6146FFE71FB500F0D7
:1067B000BFFC002801D40021C8421FBD10B500F065
:1067C00041FC4042013010BD10B500F0B1FC002882
:1067D00001DB002010BD012010BDC04610B500F047
:1067E000A7FC002801DD002010BD012010BDC0461F
:1067F00010B500F04FFC002801DC002010BD012086
:1068000010BDC04610B500F045FC002801DA00209C
:1068100010BD012010BDC046002B15D1002A13D198
:10682000002906DB01DC002806D00020C043410817
:1068300002E080210906002007B4024801A14018A7
:10684000029003BDE1FEFFFF03B4684601B5029864
:1068500000F030F9019B9E4602B00CBC7047C04668
:10686000002B11D1002A0FD1002900D1002802D01D
:106870000021C943081C07B4024802A14018029035
:1068800003BDC046A1FEFFFF03B4684601B50298F0
:1068900000F04EF8019B9E4602B00CBC7047C0460B
:1068A000F0B5CE46474615042D0C2E0080B50704E2
:1068B000140C3F0C9946030C7E435D4367436343CE
:1068C0007F19340CE4199C46A54203D980235B024E
:1068D0009846C4444B4643435143250C3604654413
:1068E000360C2404A4195B19591820000CBC9046DE
:1068F0009946F0BD70B500220C4B04000D00FFF767
:1069000047FF002804D12000290002F0DDFC70BD03
:10691000064B00222000290002F072F902F0D4FC9C
:1069200080231B069C466044F1E7C0460000E0411E
:10693000F0B54F464646D646C0B5040082B00D00BD
:10694000914698468B422FD82CD04146484602F0BB
:1069500051FE29000600200002F04CFE331A9C462E
:10696000203B9A4600D576E04B46524693401F00A6
:106970004B46624693401E00AF4228D825D053466E
:10698000A41BBD41002B00DA7BE000220023009213
:1069900001930123524693400193012362469340A1
:1069A000009318E08242D0D9002200230092019384
:1069B0000A9B002B01D01C605D600098019902B019
:1069C0001CBC90469946A246F0BDA342D7D90022EE
:1069D0000023009201936346002BE9D0FB07984601
:1069E000414672080A437B0866460EE0AB4201D17D
:1069F000A2420CD8A41A9D41012024196D41002106
:106A0000013E24184D41002E06D0AB42EED9013E86
:106A100024196D41002EF8D10098019953460019B0
:106A20006941002B23DB2B005246D3402A006446E9
:106A3000E2401C0053461500002B2DDB2600574674
:106A4000BE40330026006746BE403200801A99419E
:106A500000900191ACE7624620239B1A4A46DA4037
:106A60006146130042468A4017001F4380E7624692
:106A700020239B1A2A0066469A402300F3401343C2
:106A8000D4E76246202300219B1A00220091019244
:106A90000122DA40019280E72023624626009B1AF9
:106AA000DE402F00B0466646B74046463B003343C3
:106AB000C8E7C046F0B583B016001F0000900191F2
:106AC00002F0A4FD04000D0002000B0030003900AC
:106AD000FFF7E6FE009A019B121A8B4108992000ED
:106AE0000A604B60290003B0F0BDC046F8B54746C8
:106AF000CE4643025B0A4400C20F9C464800DD00BC
:106B00004B02240E5B0A000E80B598462600914683
:106B1000C90FDB00271A8A4229D0002F15DD002873
:106B20004AD1002B00D095E0ED08FF2C00D188E081
:106B30006B025B0AE6B25B02F605580A3043D207E5
:106B400010430CBC90469946F8BD002F00D087E05A
:106B5000601CC0B2012800DCB6E0EE1A720100D55C
:106B6000C5E0002E3DD1002200260023E3E7002FE0
:106B700000DC96E000285DD0FF2C60D08022D2049B
:106B800013431B2F00DDECE02022D21B18009340A2
:106B9000F8405A1E93410343ED186B017BD5013435
:106BA000FF2C00D1B7E0012207262A406B089A4D3E
:106BB0001D4015432E4029E0FF2CB5D08022D20481
:106BC00013431B2F00DDB2E02022D21B190093409B
:106BD000F9405A1E93410B43ED1A6B015BD5AD0191
:106BE000AE09300002F0E8FC05388640844265DCDE
:106BF000041B330020200134E340041BA640751E13
:106C0000AE41334307261D0000241E4001224B469F
:106C10001A40002E04D00F232B40042B00D0043543
:106C20006B0100D480E70134E6B2FF2C2FD1FF26A0
:106C3000002380E7002B52D1FF2C00D074E70A001C
:106C4000ED08002DF3D08023DB032B435B025B0AAE
:106C5000FF2670E7013F002FBED0FF2CB1D163E7C4
:106C6000002C47D0FF2869D08024E4047A422543D1
:106C70001B2A00DDC5E02C002026D440B21A954026
:106C80006A1E954125435D1B04008946A5E7AB01BB
:106C90005B0A50E7002401224B461A406B07BAD129
:106CA00042E7002F3BD10134E0B201284ADDFF2C3E
:106CB000BDD00726ED186D082E40A7E70723574DD6
:106CC000241A35401E40A1E7002C1BD1002D6ED1A7
:106CD000002B00D19AE00A001D003C0024E7013F90
:106CE000002F00D158E7FF2C00D04AE7A7E75E1B32
:106CF000894676E7002D1CD10A00FF281FD004002A
:106D00001D0011E7002D5DD1002B17D1802300223B
:106D1000DB03FF260FE70A00FF2600230BE7002C0A
:106D200021D1002D66D1FF28E9D11D0087E701237D
:106D300052E77A1CA7D0FA43FF2899D10A001D0018
:106D4000FF24F1E6002E21D1002D4FD0002B4CD096
:106D5000ED186B019ED5314B07362E4001241D40A6
:106D600054E7012318E7FF28DFD08024E4047F42A2
:106D700025431B2F4DDC2026F61B2C00B540FC4084
:106D80006A1E95412543ED18040006E7002DCCD07E
:106D9000002B00D153E780216046C903084203D08D
:106DA0004046084200D11D000121114047E7002B59
:106DB00000D1B9E6EA1A500125D507265D1B2E4001
:106DC000894623E7FF24002B00D1ADE680226046F0
:106DD000D203104204D04046104201D11D00894622
:106DE00001224B46FF241A409EE62B00DD080A00D4
:106DF00000249DE67A1CC6D0FF43FF28B9D11D00B0
:106E00001DE701253FE7151E00D044E700220023BF
:106E100091E60125B7E7C046FFFFFF7DFFFFFFFBBF
:106E2000F8B557464E464546DE464402E0B54600B4
:106E30008846640A360EC70F002E63D0FF2E24D07A
:106E40008023E400DB041C43002399469B467F3EDD
:106E5000434642465D02D20F5B006D0A1B0E904610
:106E6000924665D0FF2B55D080220021ED00D20440
:106E70007F3B1543F61A43464A467B400F2A00D90A
:106E80008DE06D48920082589746002C54D108231B
:106E90009946063BFF269B46DAE700255346022922
:106EA0001BD0032900D1BFE0012928D030007F305A
:106EB000002820DD6A0704D00F222A40042A00D0CF
:106EC00004352A0103D530005C4A80301540FE2885
:106ED00003DCAC01640AC2B201E0FF2200246402B8
:106EE000D205600ADB07104318433CBC9046994624
:106EF000A246AB46F8BD0122101A1B287CDD0022F9
:106F00000024ECE7002C1DD104239946033B002606
:106F10009B469DE7FF3E002D20D1022143464A4675
:106F20007B400A430F2AD8D845489200825897469A
:106F3000002D19D10121F1E70C239946093BFF26C9
:106F40009B4685E7200002F037FB7626431F9C40D6
:106F500000237642361A99469B4679E74A46032330
:106F60001A439146032186E7280002F025FB431FC0
:106F700036189D40763600217DE780240023E40307
:106F8000FF22ACE700258023DB031C4228D01D42F2
:106F900026D12B435C02640A4346FF229FE762012D
:106FA0006C01A24224D21B210025013E01271000C2
:106FB0006D005200002801DB944201D8121B3D43B2
:106FC00001390029F3D11400621E944125436DE775
:106FD000BA46594625005346022900D061E77CE7AE
:106FE0008023DB031C436402640A3B00FF2276E734
:106FF000121B1A210125D9E79E362A00B5402C0024
:10700000C240651EAC411443620704D00F222240E7
:10701000042A00D00434620103D4A401640A0022CB
:107020005DE7012200245AE78024E4032C43640234
:10703000640AFF2253E7C04610B40000FFFFFFF7C9
:1070400050B4000070B542004E024C0045026D0A7B
:10705000120EC30F760A240EC90FFF2A0FD0FF2C81
:1070600011D00120A24200D070BDB542FCD18B42AC
:107070000DD0002AF8D12800451EA841F4E70120D0
:10708000002DF1D1EBE70120002EEDD1E9E7002042
:10709000EAE7C04670B54A004E02450244006D0A58
:1070A000240EC30F760A120EC90FFF2C15D0FF2A2B
:1070B0000ED0002C15D1002A01D1002E1CD0002D9D
:1070C00014D08B4227D00220013B1840013870BDFC
:1070D000002EEED002204042F9E7002DFAD1FF2A1F
:1070E0000ED0002A0ED1002EEDD00BE00123013985
:1070F000994308000130EAE70020002DE7D0E2E7DD
:10710000002EE7D18B42DED1944205DD0221581ECC
:1071100008400138DBE70024A24204DCB542D2D8A3
:107120000020B542D3D2581E012398430130CEE748
:1071300030B5420044024D02C30F4800640A120EEB
:107140006D0A000EC90FFF2A12D0FF280CD0002AAA
:1071500012D1002819D1002D17D1002C2BD00220DC
:10716000013B1840013826E0002DF0D0022022E03B
:10717000002CFBD1FF281FD000281FD1002D1DD1CE
:107180000220013B1840013815E0002C0ED08B4244
:10719000E5D10022904204DCAC42E0D80020AC42B1
:1071A00009D2581E01239843013004E0012301391C
:1071B00099430800013030BD002DD7D18B42CED18C
:1071C0008242E7DD0221581E08400138F3E7C0463D
:1071D000F0B54E4657464546DE46E0B543025B0AEB
:1071E000450083B00F1C99462D0EC60F002D57D0B9
:1071F000FF2D24D08020DB00C004184300238146EB
:107200009A469B467F3D7C027A00FB0F640A120E71
:10721000984623D0FF2A4BD0E30080240020E404CA
:107220007F3A1C43AD186B1C474601935346774089
:107230003A000F2B48D87D499B00CB589F46002B26
:1072400000D085E008339A46063B9B467C027A00D4
:10725000FB0FFF25640A120E9846DBD1002C00D0EC
:1072600090E0524601231A4392460120DBE74C4648
:1072700058461700022824D0032800D1CFE000226E
:10728000002301284DD15802D205400AFF071043C0
:10729000384303B03CBC90469946A246AB46F0BD8D
:1072A000002B5BD104239A46033B00259B46AAE7AB
:1072B000FF35002C60D1524602231A439246022029
:1072C000B1E7FF220023DEE74B461B0C9C464B46F2
:1072D0002604360C180461463300220C6446000C68
:1072E00043434E435043544380191A0C121896429C
:1072F00003D9802149028C4664441B041B0C1004F2
:10730000C01883015E1EB341800E1843130C1B1975
:107310009B0103431C00230179D5012362081C4013
:107320001443019A7F32002A4DDD630704D00F23F6
:107330002340042B00D00434230103D53C4B019A95
:107340001C408032FE2ABCDCA3015B0AD2B29AE761
:107350000C239A46093BFF259B4654E7180002F090
:107360002BF94A46431F76259A4000236D429146E9
:107370002D1A9A469B4646E7524603231A439246E5
:10738000032050E7200002F017F9431F2D1A9C40FC
:10739000763D002047E780230027DB03FF2272E7CA
:1073A000424666E74C463200584662E780234A462A
:1073B000DB031A4222D01C4220D123435B025B0A2A
:1073C0004746FF225FE701239A1A1B2A21DC23008C
:1073D0000199D3409E318C401A0023005C1EA341CA
:1073E00013435A0704D00F221A40042A00D0043352
:1073F0005A0111D49B015B0A002244E780234A46CC
:10740000DB0313435B025B0A3700FF223BE7019576
:1074100087E70022002336E70122002333E7802399
:10742000DB0323435B025B0AFF222CE790B40000DE
:10743000FFFFFFF7F8B54746CE464400C20F80B5C0
:1074400047024802400A8446664648007F0A240EE6
:10745000F60025009046FB00000EC90FB146FF283C
:1074600000D185E001267140261A914257D0002EA6
:1074700043DD002800D07FE04946002900D1AAE082
:10748000013E002E00D0F7E05B1A5A0100D48BE0D9
:107490009B019C09200002F08FF80538844085424A
:1074A00000DDD3E0451B230020200135EB40451BC8
:1074B000AC40621E94412343072400251C40012256
:1074C00041460A40002C04D00F211940042900D065
:1074D0000433590100D480E00135ECB2FF2D00D017
:1074E000A3E0FF2400235B02E405580AD2072043EF
:1074F00010430CBC90469946F8BD002E74D1601C18
:10750000C0B2012800DCA7E04A469C1A620100D5FF
:10751000B6E0002CBED1002200240023E3E7002EB9
:1075200000DC85E0002846D0FF2C49D08022484668
:10753000D2041043814601221B2E09DC20204C4638
:10754000801B84404A462000F240441EA041024372
:107550009B185A0128D50135FF2D00D1A8E0012242
:10756000072494491A405B080B4013431C40A6E7CC
:10757000002E00D078E775E7FF2C54D080224946D2
:10758000D2041143894601221B2E09DC20214846E2
:10759000891B88404A460100F240481E81410A4347
:1075A0009B1A5A0100D573E7012241460A40590748
:1075B00000D089E711E04846002858D1FF2C0CD1B3
:1075C000DB08002B00D18CE78020C00303435B0263
:1075D0005B0AFF2487E7FF2C25D0DB08FF2DF0D0C6
:1075E0005B025B0AECB27EE7002C4DD0FF2818D07E
:1075F0008024E404724223431B2A00DDC4E01C0003
:107600002025D440AA1A93405A1E934123434A4648
:107610000500D31A884638E7721CF8D0F243FF28D9
:10762000EAD10A004B46FF25D7E79B015B0A5AE7E0
:10763000002E41D1651CE9B2012945DDFF2D00D1A5
:107640004FE707244B445B081C4038E707225A4B9E
:107650002D1A2340144032E7002C1DD1002B7AD183
:107660004B46002B00D191E00A000025B5E7013E12
:10767000002E19D14B446CE7FF2C84D1FF25ACE7D9
:107680004A468846D41A05E7002BC5D10A00FF28D0
:10769000C8D005004B46A0E7002B49D14B46002B34
:1076A00077D00A00FF2598E7FF2C00D043E787E753
:1076B0000A00FF24002316E7002C15D1002B57D118
:1076C000FF28E6D14B467BE7002C20D1002B57D07A
:1076D0004946002953D04B445A0168D50724364AFD
:1076E0001C4001251340EAE6FF28EBD08022D2049B
:1076F000764213431B2E53DC2025AD1B1A00AB40F2
:10770000F2405C1EA34113434B44050021E7002BCC
:10771000D8D04946002900D152E78021C9030F4241
:1077200000D14DE76046084200D049E74B4647E7A5
:107730004846FF25002800D14FE78022D203174298
:1077400004D06046104201D14B4688460122414692
:10775000FF250A4041E7484600281FD01A1A500169
:1077600020D54A460724D31A1C4088460025A6E6A1
:10777000741CC9D0F643FF28BCD14B4620E799467C
:107780004B460025DB082BE7012340E700220023BE
:10779000A9E680230022DB03FF24A4E600251CE7E2
:1077A0000123B1E7002AF1D013000025FCE60025F3
:1077B000FAE6C046FFFFFF7DFFFFFFFB70B5002824
:1077C0003DD0C317C5185D40C40F280001F0F4FE7A
:1077D0009E22121A962A07DCD2B2082833DD083816
:1077E00085406802400A23E0992A0BDD0523290021
:1077F0001B1AD94003001B339D402B005D1EAB417B
:1078000019430D00052801DD431F9D402B000F4942
:107810000B406E0709D00F263540042D05D00433E8
:107820005D0102D59F220B40121A9B01580AD2B269
:107830004002D205400AE4071043204370BD0024F3
:1078400000220020F4E76802400AF1E7FFFFFFFB97
:1078500070B5041E34D001F0AFFE9E22121A962A93
:1078600007DCD2B208282EDD083884406002400AC6
:1078700021E0992A09DD030021001B3399404B1EAA
:10788000994105231B1ADC400C43052801DD431FE9
:107890009C4023000D490B40650709D00F252C4063
:1078A000042C05D004335C0102D59F220B40121A30
:1078B0009B01580AD2B24002D205400A104370BD63
:1078C00000220020F7E76002400AF4E7FFFFFFFB19
:1078D000F0B54F464646D6460C000903C0B5490AE6
:1078E000470F5E0039431F03DB0F9C4665007B0A90
:1078F000570F1F436D0DE40F760DA146C000B8462B
:10790000D200AB1B64457BD0002B5FDD002E00D086
:10791000A4E03E00164300D112E15E1E002E00D00E
:107920009EE1871A4346B84280410125C91A404268
:10793000091A0B0200D431E149024E0A002E00D18F
:107940006EE1300001F038FE0300083B1F2B00DD24
:1079500061E120223900D21A9E40D1409F400E435F
:107960009D4200DD51E15D1B6B1C1F2B00DD7CE1A6
:107970002021C91A3D0030008F408840DD40791E2B
:107980008F41310007222843D940002507433A4060
:10799000002A09D00F233B40042B05D03B1DBB42DE
:1079A000BF417F42C9191F000B0200D426E26A1CA6
:1079B000C64B55056D0D9A4200D106E1C44AFF0839
:1079C0000A40530752023B43120B8EE0002B00D0BB
:1079D000B8E06B1C5B055B0D012B00DC30E1871A06
:1079E0004346B842B641CB1A76429E1B330200D5BD
:1079F0004CE13B003343A1D100220024002570E07C
:107A0000002B00DCE5E0002E00D183E0AF4EB54254
:107A100060D0802636043743B846382B00DC3EE180
:107A2000434613431F007A1E97413F188742804107
:107A3000404209180B0200D4B0E0A44B01359D422E
:107A400000D1C3E0A24A7B080A4001210F401F4336
:107A50005108D30707221F433A4099E79B4EB5428E
:107A600038D0802636043743B846382B00DDDCE0BA
:107A70001F2B00DC30E11E004746203EF740BC468D
:107A8000202B04D04026F31A46469E40324317006E
:107A900063467A1E97411F43CCE0002B00D104E2DD
:107AA0004346134300D159E14B07C00818438023D4
:107AB000C9081B03194208D04546ED081D4204D1F0
:107AC0004346D008590708432900420FC9007F4D9B
:107AD0001143C0004B07CA087C49C00803438D42CC
